:020000040800F2
:100000003809002029020008B14A0008DB44000832
:10001000AD4A000861060008ED5900080000000024
:10002000000000000000000000000000B94D0008C2
:100030003D07000800000000B74D0008BB4D000858
:10004000430200084302000843020008430200087C
:10005000430200084302000843020008430200086C
:10006000430200084302000843020008430200085C
:10007000430200084302000843020008430200084C
:10008000430200084302000843020008430200083C
:1000900065060008750600084302000843020008D0
:1000A000430200084302000843020008430200081C
:1000B0004302000843020008000000004302000859
:1000C0004302000800000000000000004302000896
:1000D0000000000043020008DD5900084302000848
:1000E0004302000843020008000000000000000076
:1000F0000000000000000000000000000000000000
:1001000000000000000000000000000000000000EF
:100110000000000000000000430200084302000845
:1001200000000000000000000000000000000000CF
:1001300000000000000000000000000000000000BF
:1001400043020008430200080000000043020008C8
:10015000FD3C000843020008430200084302000877
:1001600043020008430200080000000000000000F5
:10017000000000000000000000000000000000007F
:10018000000000004302000800F002F800F03CF814
:100190000AA090E8000C82448344AAF10107DA45E2
:1001A00001D100F031F8AFF2090EBAE80F0013F0F8
:1001B000010F18BFFB1A43F00103184750610000FC
:1001C00070610000103A24BF78C878C1FAD852078D
:1001D00024BF30C830C144BF04680C6070470000C1
:1001E0000023002400250026103A28BF78C1FBD840
:1001F000520728BF30C148BF0B6070471FB505F0DC
:100200006BFD1FBD10B510BD00F0CFF81146FFF714
:10021000F5FF05F009FC00F0EDF803B4FFF7F2FF7D
:1002200003BC00F0F5F80000094880470948004782
:10023000FEE7FEE7FEE7FEE7FEE7FEE7FEE7FEE796
:10024000FEE7FEE704480549054A064B70470000F3
:10025000514E0008890100083803002038090020A9
:10026000380500203805002053EA020C00F06980B0
:100270002DE9F04B4FF00006002B1FBFB3FA83F5BA
:1002800003FA05F424FA05F65E4012BF1643B2FAEB
:1002900082F502FA05F4C5F120051EBF22FA05FC1D
:1002A00044EA0C04203556EA044C4FEA144418BFC3
:1002B000641C4FF000084FF00009904271EB030CF2
:1002C00039D3002919BFB1FA81F701FA07F6B0FA5C
:1002D00080F700FA07F6C7F120071EBF20FA07FCD7
:1002E00046EA0C062037B6FBF4FCA7EB0507103FE7
:1002F00007F01F0BCBF120060CFA0BFB2CFA06F6CD
:1003000044BFB3460026202FA4BF5E464FF0000B2B
:100310005BEA060C08BF4FF0010B19EB0B09ABFBB6
:10032000027C48EB0608C01B06FB02CC0BFB03CC8F
:1003300071EB0C01C1E70B46024641464846BDE859
:10034000F08B13B54FF000004FF00001AFF30080C9
:10035000BDE81C4070474FF0000200B513469446BC
:100360009646203922BFA0E80C50A0E80C50B1F10D
:100370002001BFF4F7AF090728BFA0E80C5048BF21
:100380000CC05DF804EB890028BF40F8042B08BFBF
:10039000704748BF20F8022B11F0804F18BF00F8BB
:1003A000012B7047704770477047754600F02CF876
:1003B000AE4605006946534620F00700854618B052
:1003C00020B5FFF73FFFBDE820404FF000064FF09B
:1003D00000074FF000084FF0000B21F00701AC467A
:1003E000ACE8C009ACE8C009ACE8C009ACE8C00999
:1003F0008D46704710B50446AFF300802046BDE837
:100400001040FFF70ABF000000487047D4020020E8
:1004100001491820ABBEFEE726000200704700002D
:1004200090ED020A90ED011A0168098800EE901A19
:10043000F8EE600A01EE200A80ED030A90ED030A4F
:10044000D0ED050A20EE200AD0ED040A90ED051A41
:10045000F7EE001A31EEC11A00EE810A80ED040AAF
:10046000704700B50348FFF7DBFF0348FFF7D8FFED
:1004700000BD0000240000204000002070B50546AB
:100480006C6A206C00F05000D0B9206C40F4007011
:1004900020642068C06800F4406068B9607E58B984
:1004A000206C20F480702064206C00F4805018B917
:1004B000206C40F001002064204600F04DFC03E079
:1004C000A06B016B2846884770BD70B505466C6A05
:1004D000206C40F040002064606C40F004006064D8
:1004E000204600F03BFC70BD70B50446656A2846A6
:1004F00000F033FC70BD0000DFED081AC0ED041AF7
:10050000DFED061AC0ED031A80ED051AC0ED020AF0
:1005100080ED010A016002767047000000000000D3
:1005200070B5044600252068806800F003000128AB
:1005300006D12068006800F0010008B1012000E049
:10054000002000283BD02068806800F00D000128C2
:1005500000D100E0002050B100BF2068806840F06A
:1005600002002168886003202168086009E0206C8F
:1005700040F010002064606C40F0010060640120D5
:1005800070BD01F0E1FA054613E001F0DDFA401B11
:1005900002280ED92068806800F0010048B1206C64
:1005A00040F010002064606C40F0010060640120A5
:1005B000E6E72068806800F001000028E5D100200F
:1005C000DEE7000070B5044600252068806800F072
:1005D0000300012806D12068006800F0010008B17E
:1005E000012000E0002080BB206880681B49084093
:1005F00008B9012000E0002048B9206C40F010004C
:100600002064606C40F001006064012070BD2068CF
:10061000806840F001002168886001F095FA054685
:1006200014E001F091FA401B02280FD920680068FD
:1006300000F0010050B9206C40F010002064606CA4
:1006400040F0010060640120E0E705E020680068F8
:1006500000F001000028E4D00020D7E73F00008030
:1006600000BFFEE710B5024800F06BFE10BD0000B1
:10067000FC00002010B5024800F063FE10BD000031
:10068000FC00002000B595B00020109001201190D2
:10069000002012904FF4BC600B904FF4B8600C90A7
:1006A00000200D900E900F90012013900BA9174879
:1006B00000F0C1FD08B100F042F80221134800F03B
:1006C000A5FD08B100F03BF801200690002007903E
:1006D00012900B900C900D900E9001200F901390A3
:1006E00001A90A4800F0A7FD08B100F028F8102180
:1006F000064800F08BFD08B100F021F8034801F036
:1007000054F808B100F01BF815B000BDFC00002043
:1007100030B590F840500124AC40C56B6C60046863
:1007200063604468102C04D10468A2600468E1602E
:1007300003E00468A1600468E26030BD704772B6EF
:1007400000BFFEE72DE9F04104460E46002700BF3A
:1007500094F83C00012802D10220BDE8F08101207C
:1007600084F83C0000BF2046FFF7DAFE074697BB3F
:10077000012020642068806820F080402168886023
:10078000012E05D12068806840F080402168886093
:100790002068806840F000402168886001F0D4F94A
:1007A000054619E001F0D0F9401B0A2814D9206849
:1007B000806800F00040B0F1004F0DD1206C20F0B7
:1007C000020040F01000206400BF002084F83C00CC
:1007D00000BF0120C1E70CE02068806800F0004005
:1007E000B0F1004FDED0206C20F0020040F001009C
:1007F000206400BF002084F83C0000BF3846ACE70E
:1008000070B594B002460B460024186800B100BFD2
:100810001068B0F1A04F02D14648009002E04FF0BE
:10082000A0400090009810B9012014B070BD00BF26
:1008300092F83C00012801D10220F6E7012082F85D
:100840003C0000BF10688068C0F38000002864D1BD
:1008500000988068C0F3800000285ED1364918688F
:1008600090B392F830005D6845EA40308D6825F419
:100870006045284388601068806800F00300012804
:1008800006D11068006800F0010008B1012000E006
:100890000020002846D10098806800F0030001285D
:1008A00006D10098006800F0010008B1012000E0C6
:1008B000002088BB9D68186828438D6840F61F7625
:1008C000B543284388602DE0FFE7886820F4604046
:1008D00088601068806800F00300012806D1106865
:1008E000006800F0010008B1012000E0002098B984
:1008F0000098806800F00300012806D10098006885
:1009000000F0010008B1012000E0002020B9886853
:1009100040F61F75A843886004E0106C40F020008A
:100920001064012400BF002082F83C0000BF204674
:100930007BE700000001005000030050F0B595B0C7
:100940000246002500200090C868012800D000E081
:1009500000BF00BF92F83C00012802D1022015B070
:10096000F0BD012082F83C0000BF10688068C0F331
:100970008000002879D14868052812D21068006BE1
:100980000E7906EB460677001F26BE40B0430F796E
:1009900007EB47077F000E68BE40304316683063A0
:1009A00043E048680A2814D21068406B0E79761F1D
:1009B00006EB460677001F26BE40B0430F797F1F27
:1009C00007EB47077F000E68BE4030431668706330
:1009D0002BE048680F2814D21068806B0E790A3E0D
:1009E00006EB460677001F26BE40B0430F790A3F4C
:1009F00007EB47077F000E68BE4030431668B063C0
:100A000013E01068C06B0E790F3E06EB46067700C8
:100A10001F26BE40B0430F790F3F07EB47077F000B
:100A20000E68BE4030431668F0631068806800F0BE
:100A30000C0008B1012000E00020002870D10868F7
:100A40000A2813D3106880690E780A3E06EB460721
:100A50000726BE40B0430F780A3F07EB47078E6872
:100A6000BE4030431668B06110E05FE11068406935
:100A70000E7806EB46070726BE40B0430F7807EB1B
:100A800047078E68BE403043166870614869166833
:100A9000F668C6F3C106760000FA06F40869012874
:100AA00006D0022812D003281ED0042839D129E00C
:100AB0001068006EA34E30400E784FF0004747EAB2
:100AC0008666264330431668306663E01068406EE1
:100AD0009C4E30400E784FF0004747EA866626432A
:100AE00030431668706655E01068806E954E304051
:100AF0000E784FF0004747EA866626433043166873
:100B0000B06647E01068C06E8E4E30400E784FF0F1
:100B1000004747EA8666264330431668F06639E0A8
:100B200039E01068006E00F0F8400E78B0EB866F88
:100B300005D11068006E20F000401668306610681D
:100B4000406E00F0F8400E78B0EB866F05D110686B
:100B5000406E20F00040166870661068806E00F0ED
:100B6000F8400E78B0EB866F05D11068806E20F0EB
:100B700000401668B0661068C06E00F0F8400E784D
:100B8000B0EB866F05D11068C06E20F0004016688B
:100B9000F06600BF00BF1068806800F00300012805
:100BA00006D11068006800F0010008B1012000E0E3
:100BB000002000287ED1C86801280AD01068D0F82B
:100BC000B0000F780126BE40B0431668C6F8B000EA
:100BD00032E01068D0F8B0000F780126BE403043F4
:100BE0001668C6F8B00008680A2813D3106886692A
:100BF0000878093800EB40070720B84026EA0000D3
:100C00000E78093E06EB46068F68B74038431668F3
:100C1000B06111E0106840690E78761C06EB46075B
:100C20000726BE40B0430F787F1C07EB47078E684E
:100C3000BE40304316687061434B0868102803D1EA
:100C4000986800F4000070B10868112803D1986812
:100C500000F0807038B1086812286CD1986800F4F0
:100C60008000002867D11068B0F1A04F02D137484A
:100C7000019002E04FF0A04001901068806800F001
:100C80000300012806D11068006800F0010008B1D7
:100C9000012000E0002070BB019880B101988068BD
:100CA00000F00300012808D10198006800F001005D
:100CB00018B100E033E0012000E00020D8B9086856
:100CC000102819D11068B0F1A04F15D1986840F4E0
:100CD000000098601E4800681E4EB0FBF6F000EB66
:100CE00080004000009002E00098401E00900098B4
:100CF0000028F9D11FE013E00868112808D1106816
:100D0000B0F1A04F04D1986840F08070986012E074
:100D1000086812280FD1986840F4800098600AE0B3
:100D2000106C40F020001064012504E0106C40F0CD
:100D300020001064012500BF002082F83C0000BFA5
:100D400028460CE600F0FF8300030050000100502D
:100D50001C00002040420F007047704770470000A1
:100D6000F0B595B00446002600250020009014B987
:100D7000012015B0F0BD206918B12020005D00B140
:100D800000BF206C00F01000002853D1206C98BBED
:100D9000002060640021E164A06484F83C002046E7
:100DA00000F008F92068806800F0805020BB2046E1
:100DB000FFF7B6FB0646206C00F01000E0B9DEB984
:100DC000206C20F4885040F0020020642068806885
:100DD00020F04050216888602068806840F0805092
:100DE000216888606E4800686E49B0FBF1F000EB46
:100DF00080004000009003E005E00098401E009055
:100E000000980028F9D12068806800F0805030B147
:100E10002068806800F00050B0F1005F0AD1206CBB
:100E200020F0020040F010002064606C40F00100EF
:100E300060640126206C00F01000002873D1002EA1
:100E4000FCD120688068C0F380000028F6D1206CB7
:100E500020F4807040F002002064534F2068B0F10D
:100E6000A04F02D15148019002E04FF0A040019004
:100E70002068806800F00300012806D1206800681F
:100E800000F0010008B1012000E00020B0B9019895
:100E900070B10198806800F00300012806D1019824
:100EA000006800F0010008B1012000E0002028B92E
:100EB000B86820F4403061680843B860606B01286E
:100EC00002D04FF4805100E00021607E41EA4030C2
:100ED000E1680843A168084305432020005D01281C
:100EE00013D1607E38B9A08C401E4FF4803141EAA6
:100EF0004040054309E0206C20F0020040F0200053
:100F00002064606C40F001006064A06A012803D096
:100F1000D4E90A01084305432068806800F00C000A
:100F200010B1012001E032E0002068B92068C068FB
:100F300044F2020188432168C860207E810394F84E
:100F4000300041EA400005432068C0681849084065
:100F500028432168C8602069012809D12068006BF6
:100F600020F00F00E169491E08432168086305E08D
:100F70002068006B20F00F00216808630020606487
:100F8000206C20F0020040F00100206406E0206C9C
:100F900020F0020040F01000206401263046E8E610
:100FA0001C00002040420F000003005000010050D0
:100FB00007C0F0FF10B586B00446142101A8FFF762
:100FC000CAF92068B0F1A04F30D133480068401C06
:100FD000314908600846006801280DD100BF2F483C
:100FE000406940F080502D4948610846406900F052
:100FF0008050009000BF00BF00BF2848406940F407
:101000000030264948610846406900F400300090ED
:1010100000BF00BF01200190032002900020039038
:1010200001A94FF0904000F0B1FC33E01C4920686A
:1010300088422FD118480068401C174908600846AC
:10104000006801280DD100BF1448406940F080506D
:10105000124948610846406900F08050009000BF86
:1010600000BF00BF0D48406940F400300B494861A3
:101070000846406900F40030009000BF00BF102017
:101080000190032002900020039001A94FF09040AE
:1010900000F07CFC06B010BD0C00002000100240E7
:1010A000000100502DE9F04104460D461646002788
:1010B00020688068C0F3800000287DD100BF94F8CC
:1010C0003C00012802D10220BDE8F081012084F813
:1010D0003C0000BF4848006800F01F0000286CD1A9
:1010E0002046FFF76FFA0746002F76D1206C40F6B6
:1010F0000161884340F4807020643F48006800F03C
:101100001F0018B12068B0F1A04F0FD1206C20F45F
:10111000801020642068C06800F0007000B3206C6C
:1011200020F4005040F48050206419E0206C40F41A
:10113000801020642068B0F1A04F03D02F492068B0
:10114000884205D14FF0A040C06800F0007000E078
:10115000002028B1206C20F4005040F4805020641E
:10116000206C00F48050B0F5805F04D1606C20F0FA
:101170000600606401E00020606400BF002084F885
:101180003C0000BF1E48A16B88621E48A16BC8626C
:101190001D48A16B08631C20216808602068406816
:1011A00040F01000216848602068C06840F00100ED
:1011B0002168C860226802E01AE013E00DE002F145
:1011C000400133462A46A06B00F07EFB2068806811
:1011D00040F00400216888600BE000BF002084F824
:1011E0003C0006E0012700BF002084F83C0000E03E
:1011F0000227384668E7000008030050000100504D
:101200007D040008E9040008CB04000810B502467C
:1012100092F82030012B01D0022B06D110684069D2
:10122000084314686061002010BD506A40F48020BB
:1012300050620120F8E7F0B504460A46216894F8A8
:101240002050012D01D0022D74D1D1F8000240F0C0
:101250000100C1F80002107D00F01F06012000FA15
:1012600006F3D1F81C029843C1F81C02D069C8B932
:10127000D1F80C029843C1F80C02908880B296898C
:1012800040EA064601F51070576940F8376010884B
:1012900080B2168940EA064601F51070576900EBE6
:1012A000C7004660D069012819D1D1F80C02184353
:1012B000C1F80C02908880B2168840EA064601F513
:1012C0001070576940F83760908980B2168940EAFB
:1012D000064601F51070576900EBC700466090693B
:1012E00028B9D1F804029843C1F8040204E0D1F807
:1012F00004021843C1F80402106928B9D1F8140295
:101300009843C1F8140204E0D1F814021843C1F85C
:101310001402106A012804D1D1F81C021843C1F844
:101320001C02D1F8000220F00100C1F800020020E8
:10133000F0BDFFE7606A40F4802060620120F7E7BB
:1013400070472DE9F05F0446002520684669206853
:10135000D0F80490206887682068D0F80CA0206836
:10136000D0F810B02068D0F8188006F001000028EE
:1013700055D007F00100C0B101202168886007F056
:10138000020018B1204600F040FA0EE007F0040019
:1013900010B145F4006508E007F0080010B145F40D
:1013A000805502E0204600F02FFA07F48070C8B1A3
:1013B0004FF480702168886007F4007018B12046EF
:1013C00000F025FA0EE007F4806010B145F40055F6
:1013D00008E007F4006010B145F4804502E02046C3
:1013E00000F014FA07F48030C8B14FF4803021685F
:1013F000886007F4003018B1204600F00AFA0EE0C9
:1014000007F4802010B145F4004508E007F40020FF
:1014100010B145F4803502E0204600F0F9F906F0FD
:10142000080038B10AF0100020B145F40075102012
:101430002168C86006F0040040B10AF0080028B135
:1014400008202168C860204600F0AAF906F00200D2
:1014500038B12068C06800F0030010B1204600F0E9
:10146000A0F906F0400038B10BF0100020B145F4AF
:10147000806510202168086106F0200040B10BF063
:10148000080028B1082021680861204600F08AF988
:1014900006F0100038B12068006900F0030010B1B8
:1014A000204600F080F906F4003040B109F0100049
:1014B00028B1102021684860204600F075F906F434
:1014C000803040B109F0080028B108202168486048
:1014D000204600F09FF906F4004088B309F00400AC
:1014E00078B306F4807020B108F0010008B145F02F
:1014F000010506F4007020B108F0020008B145F0C3
:10150000020506F4806020B108F0040008B145F03F
:10151000040506F40060A0B108F0700088B108F07E
:101520007000402817D006DC10280BD020280CD0E3
:10153000302819D10CE0502810D0602814D110E0C8
:101540001DE019E045F008050FE045F010050CE03E
:1015500045F0200509E045F0400506E045F080052E
:1015600003E045F4807500E000BF00BF206880699B
:1015700020F07000216888610420216848602DB146
:10158000606A284360622046FFF7DAFEBDE8F09FFC
:1015900070B504460CB9012070BD94F8200010B954
:1015A000204600F0AFF82068006840F00100216894
:1015B000086000F0C9FA05460DE000F0C5FA401BCE
:1015C0000A2808D9606A40F400306062052084F877
:1015D00020000120E0E72068406800F001000028BA
:1015E000EBD02068006820F002002168086000F05D
:1015F000ABFA05460DE000F0A7FA401B0A2808D90F
:10160000606A40F400306062052084F82000012008
:10161000C2E72068406800F002000028EBD1207E7D
:10162000012806D12068006840F080002168086029
:1016300005E02068006820F0800021680860607E76
:10164000012806D12068006840F040002168086049
:1016500005E02068006820F0400021680860A07E56
:10166000012806D12068006840F020002168086049
:1016700005E02068006820F0200021680860E07E16
:10168000012806D12068006820F010002168086059
:1016900005E02068006840F0100021680860207FA5
:1016A000012806D12068006840F008002168086021
:1016B00005E02068006820F0080021680860607F6D
:1016C000012806D12068006840F004002168086005
:1016D00005E02068006820F0040021680860D4E973
:1016E0000201084321690843616908436168491E92
:1016F00008432168C86100206062012084F820004E
:10170000002049E710B586B00446142101A8FEF771
:1017100022FE20492068884239D100BF1E48C06996
:1017200040F000701C49C8610846C06900F00070B4
:10173000009000BF00BF00BF0846406940F4802011
:1017400048610846406900F48020009000BF00BF57
:101750004FF440700190022002900020039003207B
:1017600004900920059001A90C4800F00FF900220F
:101770001146142000F026FE142000F013FE002273
:101780001146152000F01EFE152000F00BFE06B0DD
:1017900010BD00000064004000100240000400483A
:1017A0007047704770477047704770B5044694F8AB
:1017B0002000012822D1022084F82000206800683F
:1017C00020F001002168086000F0BEF905460DE038
:1017D00000F0BAF9401B0A2808D9606A40F40030CA
:1017E0006062052084F82000012070BD20684068F8
:1017F00000F001000028EBD16062F6E7606A40F477
:10180000002060620120F0E7704770477047704722
:10181000704770477047014609B90120704791F839
:101820002100022808D00420886300BF002081F82E
:10183000200000BF0120F1E70868006820F00E00DA
:101840000A6810600868006820F001000A681060EB
:1018500091F8402001209040CA6B5060012081F82F
:10186000210000BF002081F8200000BF00BFD5E7A5
:1018700070B50446002594F82100022803D0042006
:10188000A06301251EE02068006820F00E0021689A
:1018900008602068006820F001002168086094F862
:1018A000401001208840E16B4860012084F821004D
:1018B00000BF002084F8200000BF606B10B12046FC
:1018C000616B8847284670BD2DE9F04104460D46FE
:1018D00016461F464FF0000800BF94F8200001286C
:1018E00002D10220BDE8F081012084F8200000BF71
:1018F00094F8210001282CD1022084F82100002036
:10190000A0632068006820F00100216808603B4661
:10191000324629462046FEF7FBFEE06A30B12068D9
:10192000006840F00E00216808600BE02068006845
:1019300040F00A00216808602068006820F0040078
:10194000216808602068006840F001002168086094
:1019500006E000BF002084F8200000BF4FF002081E
:101960004046BFE770B5044600F0EEF8064625464F
:10197000681C10B104480078054400BF00F0E4F88A
:10198000801BA842FAD370BD1800002078B503462A
:101990000A460021C0E001268E40156805EA0604CB
:1019A000002C73D0157905F00305012D04D01579AD
:1019B00005F00305022D13D198684E000325B540AC
:1019C000A8434E00D568B540284398605868012563
:1019D0008D40A8431579C5F300158D402843586004
:1019E000157905F00305032D09D0D8684E000325AD
:1019F000B540A8434E009568B5402843D860157996
:101A000005F00305022D13D1CE0803F1200555F88A
:101A100026004D07EE0E0F25B540A8434E07F60EE3
:101A20001569B5402843CE0803F1200545F8260086
:101A300018684E000325B540A843157905F0030545
:101A40004E00B54028431860556805F44035002D18
:101A500061D000BF334DAD6945F00105314EB56130
:101A60003546AD6905F00105009500BF00BF4FEA9E
:101A7000B6358E0855F826008D072E0F0F25B54078
:101A8000A843B3F1904F02D1002510E043E0264D6A
:101A9000AB4201D101250AE0244DAB4201D1022520
:101AA00005E0234DAB4201D1032500E005258E075B
:101AB000360FB54028431F4D8E0845F826001E4DB1
:101AC0002868A043556805F4801505B120431A4DD8
:101AD00028602D1D2868A043556805F4001505B140
:101AE0002043154D2D1D2860134D2D1F2868A04340
:101AF000556805F4003505B120430F4D2D1F2860B2
:101B00002D1F2868A043556805F4803505B1204392
:101B1000094D083D2860491C1568CD40002D7FF413
:101B20003AAF78BD001002400004004800080048A9
:101B3000000C004808000140080401400AB181611E
:101B400000E08162704700000148006870470000B3
:101B5000100000207047704770477047704770470B
:101B6000704770477047024600BF92F8C0000128D6
:101B700001D102207047012082F8C00000BF02207E
:101B800082F8C100481C80B91068D0F8CC0320F05E
:101B900002031068C0F8CC331068D0F8CC0340F0D2
:101BA00001031068C0F8CC3318E01068D0F8CC03FB
:101BB00040F002031068C0F8CC331068D0F8CC03B2
:101BC00020F00C0008431368C3F8CC031068D0F869
:101BD000CC0340F001031068C0F8CC33012082F838
:101BE000C1000020C6E7000030B503460C4693F85C
:101BF000C100022800D130BD00BF93F8C000012809
:101C000001D10220F7E7012083F8C00000BF0220C5
:101C100083F8C100108800F4E0519088C0F30800F8
:101C20000143108900F400700143108A00F48040E1
:101C30000143908900F400400143908A134D05EA66
:101C400000400143906900F000700143106A00F009
:101C500080400143D06900F00040014318688030A3
:101C600000EBC410806B0A4D284008431D68803586
:101C700005EBC415A863012083F8C10000BF002054
:101C800083F8C00000BF00BFB5E700000000FF01FF
:101C90000020003C7047704770477047704770479E
:101CA00070B505460C46FF2C03D1284602F06EF8AD
:101CB00009E0052C03D1284602F001F903E0214692
:101CC000284602F002FA70BDF8B504460CB90120AE
:101CD000F8BD0220C43404F8030C002020606060CA
:101CE000A060E06020616061C43C207A00F00100E7
:101CF00008B33549206888420DD100BF3348806958
:101D000040F00050314988610846806900F0005079
:101D1000009000BF00BF2068066826F44046208A75
:101D200000F44040064326F44056A08A00F4405098
:101D3000064320680660204600F04AF8207A00F04A
:101D4000020048B12068066826F44076A08900F4B5
:101D50004070064320680660012084F8C10000BF7F
:101D6000002084F8C00000BF002529E00021C5EB59
:101D7000C50204F1180040F82210C5EBC50200EBC3
:101D800082004160C5EBC50204F1180000EB82003F
:101D90008160C5EBC50204F1180000EB8200C16050
:101DA000C5EBC50204F1180000EB82000161C5EB30
:101DB000C50204F1180000EB82008161681CC5B205
:101DC000052DD3D9002083E70074014000100240A4
:101DD00038B504460D492068884215D100BF0C482B
:101DE000806940F000500A4988610846806900F027
:101DF0000050009000BF00BF00221146442000F0B8
:101E0000E1FA442000F0CEFA38BD00000074014031
:101E10000010024010B586B00446142101A8FEF758
:101E20009AFA1249206888421DD100BF10484069C3
:101E300040F400300E4948610846406900F4003023
:101E4000009000BF00BF4FF470600190022002902C
:101E500000200390032004900D20059001A94FF06D
:101E60009040FFF793FD06B010BD000000740140E4
:101E700000100240704770477047704770B50446C5
:101E80000D46FFF761FE06460CE0681C50B1FFF7F7
:101E90005BFE801BA84200D825B9072084F8C1004A
:101EA000032070BD2068D0F88803C0F300400028EC
:101EB000EBD0012084F8C10000BF002084F8C000EE
:101EC00000BF00BFEDE7704770B505460C460348FC
:101ED000854202D10CB9FEF7C4FA70BD240100207E
:101EE0007047704770B504460D46164694F8C10019
:101EF000022800D170BD022084F8C100052D04D154
:101F00003146204601F099FF04E03246294620463A
:101F100002F0D2F9012084F8C1000020EAE730B5D0
:101F2000044694F8C100022800D130BD00BF94F8E7
:101F3000C000012801D10220F7E7012084F8C00089
:101F400000BF022084F8C100052928D1012A06D04B
:101F5000022A08D0042A0AD0082A10D10BE01868F7
:101F60002568E86114E018682568686210E0186860
:101F70002568A8620CE018682568E86208E0072078
:101F800084F8C10000BF002084F8C00000BF00BF7B
:101F900000BF94F8C10007287DD10120C5E7012AC0
:101FA00006D0022A0BD0042A4CD0082A74D150E063
:101FB0001D682068803000EBC110C5619AE01D6883
:101FC0002068803000EBC1104562586868B3206813
:101FD000803000EBC110006820F44055206880304C
:101FE00000EBC11005602068803000EBC110006874
:101FF0005D6828432568803505EBC1152860586861
:10200000B0F5005F06D19D682068803000EBC110FC
:10201000C56116E05868B0F5405F12D19D68206830
:10202000803000EBC11085620BE02068803000EB4F
:10203000C110006820F440502568803505EBC115BB
:10204000286057E01D682068803000EBC110856271
:1020500050E01D682068803000EBC110C5625868F0
:1020600088B32068803000EBC110006820F4404540
:102070002068803000EBC11005602068803000EBE4
:10208000C11000685D6840EA85052068803000EB7B
:10209000C110056001E034E023E05868B0F5005F4E
:1020A00006D19D682068803000EBC110C56117E043
:1020B0005868B0F5405F13D19D682068803000EB10
:1020C000C11085620CE0FFE72068803000EBC11092
:1020D000006820F440402568803505EBC115286074
:1020E00008E0072084F8C10000BF002084F8C00089
:1020F00000BF00BF00BF94F8C100072801D1012034
:1021000013E7012084F8C10000BF002084F8C0005C
:1021100000BF00BF09E7024600BF92F8C0000128D7
:1021200001D102207047012082F8C00000BF0220C8
:1021300082F8C10010680068084313681860012025
:1021400082F8C10000BF002082F8C00000BF00BFBD
:10215000E8E72DE9F04104460D4616461F4694F87F
:10216000C100022801D1BDE8F08100BF94F8C00091
:10217000012801D10220F6E7012084F8C00000BF49
:10218000022084F8C1003B4632462946204601F031
:1021900023FF012084F8C10000BF002084F8C000A4
:1021A00000BF00BFDFE7024600BF92F8C000012871
:1021B00001D102207047012082F8C00000BF022038
:1021C00082F8C1001068D0F8940308431368C3F87C
:1021D0009403012082F8C10000BF002082F8C000F3
:1021E00000BF00BFE6E7024600BF92F8C00001282A
:1021F00001D102207047012082F8C00000BF0220F8
:1022000082F8C1001068D0F8980308431368C3F837
:102210009803012082F8C10000BF002082F8C000AE
:1022200000BF00BFE6E770B504460D46164694F8B9
:10223000C100022800D170BD00BF94F8C000012881
:1022400001D10220F7E7012084F8C00000BF02207E
:1022500084F8C100052D04D13146204601F001FE6D
:1022600004E032462946204602F046F8C5EBC50296
:1022700004F1180000EB820031688160C5EBC502F3
:1022800004F1180000EB82007168C160C5EBC50263
:1022900004F1180000EB8200B1680161C5EBC502D2
:1022A00004F1180000EB8200F1684161C5EBC50242
:1022B00004F1180000EB8200316981612946204653
:1022C00001F024FD012084F8C10000BF002084F843
:1022D000C00000BF00BFAEE70348006803490978AB
:1022E00008440149086070471000002018000020D1
:1022F00010B50848006840F0100006490860032047
:1023000000F09EF80F2000F007F800F02BF80020F6
:1023100010BD00000020024070B504460E48007851
:102320004FF47A71B1FBF0F00C490968B1FBF0F59C
:10233000284601F07BF808B1012070BD102C07D2AF
:1023400000222146501E00F03DF80548046001E0DF
:102350000120F2E70020F0E7180000201C00002018
:102360001400002008B500BF0D48806940F001004E
:102370000B4988610846806900F00100009000BFA9
:1023800000BF00BF0846C06940F08050C8610846E1
:10239000C06900F08050009000BF00BF08BD000081
:1023A0000010024001460846002809DB00F01F0328
:1023B00001229A4043099B0003F1E023C3F8002166
:1023C00000BF70472DE9F05F80460D461646002796
:1023D00003F00EFB074639462A46334601F0070054
:1023E000C0F1070ABAF1040F02D94FF0040A01E064
:1023F000C0F1070AD14600F1040ABAF1070F02D270
:102400004FF0000A01E0A0F1030AD4464FF0010AA0
:102410000AFA09FAAAF1010A0AEA020A0AFA0CFA05
:102420004FF0010B0BFA0CFBABF1010B0BEA030BAA
:102430004AEA0B042146404603F0E2FABDE8F09F69
:1024400000BF00F00702064B19684FF6FF03194062
:10245000044B0B4343EA0221014B196000BF704754
:102460000CED00E00000FA05F8B504460026002552
:102470000027206800F48030B0F5803F73D17A489F
:10248000C06900F0805070B900BF7748C06940F063
:1024900080507549C8610846C06900F080500090BE
:1024A00000BF00BF01277148006800F48070B0B918
:1024B0006E48006840F480706C490860FFF744FB88
:1024C000064606E0FFF740FB801B642801D9032085
:1024D000F8BD6648006800F480700028F2D06248B9
:1024E000006A00F44075002D6BD0A08800F44070A5
:1024F000A84266D05C48006A20F4407501210804B7
:1025000090FAA0F0B0FA80F0594A02EB8000C0F8CF
:1025100000140020090491FAA1F1B1FA81F102EB53
:102520008101C1F800045048056205F00100B8B30C
:10253000FFF70AFB064608E0FFF706FB801B41F2A7
:102540008831884201D90320C2E74020022191FA54
:10255000A1F1B1FA81F108430121B1EB601F03D170
:10256000414800681FE03BE04020022191FAA1F1C0
:10257000B1FA81F108430221B1EB601F02D13A4860
:10258000006A10E04020022191FAA1F1B1FA81F134
:1025900008430421B1EB601F03D13348406802E0D7
:1025A0000FE03148406A4021022292FAA2F2B2FAC8
:1025B00082F2114301F01F020121914008400028DE
:1025C000BAD02948006A20F440706168084326495F
:1025D0000862012F04D10846C06920F08050C8610C
:1025E000207800F0010038B11F48006B20F0030094
:1025F000A16808431C490863207800F020002028C7
:1026000007D11948006B20F01000E1680843164913
:102610000863207800F08000802807D11248C06A43
:1026200020F4F870216908430F49C862208800F43B
:102630008050B0F5805F07D10B48006B20F48070AC
:102640006169084308490863208800F48040B0F5B8
:10265000804F07D10448006B20F48050A1690843E3
:1026600001490863002033E7001002400070004079
:102670000000424270B504460D4600260CB9012008
:1026800070BDA248006800F00700A8420ED29F4823
:10269000006820F0070028439C490860084600684D
:1026A00000F00700A84201D00120E9E7207800F0FF
:1026B0000200022807D19648406820F0F000A16887
:1026C000084393494860207800F0010000287CD03E
:1026D000606801283BD12020010391FAA1F1B1FAF1
:1026E00081F108430121B1EB601F02D188480068E5
:1026F0001DE02020010391FAA1F1B1FA81F1084314
:102700000221B1EB601F02D18148006A0FE0202056
:10271000010391FAA1F1B1FA81F108430421B1EB6F
:10272000601F02D17A48406801E07948406A202160
:102730000A0392FAA2F2B2FA82F2114301F01F02E6
:1027400001219140084000287CD1012098E7606871
:1027500002283BD12020010591FAA1F1B1FA81F1C3
:1027600008430121B1EB601F02D1694800681DE0F8
:102770002020010591FAA1F1B1FA81F1084302216B
:10278000B1EB601F02D16248006A0FE02020010512
:1027900091FAA1F1B1FA81F108430421B1EB601F74
:1027A00002D15B48406801E05948406A20210A058F
:1027B00092FAA2F2B2FA82F2114301F01F02012151
:1027C00091400840E8BB01205AE758E02020022150
:1027D00091FAA1F1B1FA81F108430121B1EB601F37
:1027E00002D14B4800681DE02020022191FAA1F19E
:1027F000B1FA81F108430221B1EB601F02D14448D4
:10280000006A0FE02020022191FAA1F1B1FA81F1D2
:1028100008430421B1EB601F02D13D48406801E04C
:102820003B48406A2021022292FAA2F2B2FA82F2D6
:10283000114301F01F0201219140084008B9012015
:102840001EE7FFE73248406820F003006168084354
:102850002F494860FFF778F9064608E0FFF774F95A
:10286000801B41F28831884201D9032008E72848BB
:10287000406800F00C006168B0EB810FEED1234896
:10288000006800F00700A8420ED92048006820F038
:10289000070028431D4908600846006800F007004B
:1028A000A84201D00120EBE6207800F004000428C3
:1028B00007D11748406820F4E060E16808431449F4
:1028C0004860207800F00800082808D110484068C7
:1028D00020F46050216940EAC1000D49486000F0D1
:1028E00051F80B49496801F0F001F02292FAA2F286
:1028F000B2FA82F2D140074A515CC84006490860EA
:1029000006480068FFF708FD0020B9E600200240F5
:1029100000100240025D00081C000020140000208E
:1029200001480068704700001C00002000B5FFF758
:10293000F7FF0749496801F4E0614FF4E06292FA59
:10294000A2F2B2FA82F2D140024A515CC84000BD04
:1029500000100240125D000800B5FFF7E1FF0749D3
:10296000496801F460514FF4605292FAA2F2B2FA4F
:1029700082F2D140024A515CC84000BD00100240C2
:10298000125D00082DE9F0410024002500270026F3
:10299000A0461848446804F00C0018B3042802D07C
:1029A00008281ED102E0DFF850801EE01348C4F36F
:1029B0008341465C0F48C06A00F00F0010490D5C6F
:1029C00004F4803040B12A4600230B481946FDF735
:1029D0004BFCA0FB067102E00A48A0FB0671B8465A
:1029E00003E000BFDFF8108000BF00BF4046BDE835
:1029F000F08100000010024000127A00E25C000842
:102A0000F25C000800093D00F8B504460CB901204D
:102A1000F8BD207800F0010000287BD0FA4840681B
:102A200000F00C0004280CD0F748406800F00C00BF
:102A3000082845D1F448406800F48030B0F5803F64
:102A40003ED12020010391FAA1F1B1FA81F10843AE
:102A50000121B1EB601F02D1EB4800681DE020208E
:102A6000010391FAA1F1B1FA81F108430221B1EB1E
:102A7000601F02D1E448006A0FE02020010391FAB0
:102A8000A1F1B1FA81F108430421B1EB601F02D139
:102A9000DD48406801E0DC48406A20210A0392FAE0
:102AA000A2F2B2FA82F2114301F01F020121914019
:102AB00008400028B1D0606800282BD10120A7E78A
:102AC00000BF6068B0F5803F06D1CF48006840F491
:102AD0008030CD49086029E0606858B9CA4800686C
:102AE00020F48030C84908600846006820F480203F
:102AF00008601BE06068B0F5A02F0CD1C2480068E8
:102B000040F48020C04908600846006840F48030E6
:102B100008600BE0A1E0BC48006820F48030BA49AE
:102B200008600846006820F48020086000BFB648AE
:102B3000C06A20F00F00A1680843B349C86260680A
:102B4000A0B3FFF701F8054606E0FEF7FDFF401BC6
:102B5000642801D903205BE72020010391FAA1F149
:102B6000B1FA81F108430121B1EB601F02D1A648FF
:102B700000681EE02020010391FAA1F1B1FA81F171
:102B800008430221B1EB601F02D19F48006A10E0A8
:102B90002020010391FAA1F1B1FA81F10843042147
:102BA000B1EB601F03D19848406802E010E09648FE
:102BB000406A20210A0392FAA2F2B2FA82F2114389
:102BC00001F01F020121914008400028BDD044E0DF
:102BD000FEF7BAFF054606E0FEF7B6FF401B642885
:102BE00001D9032014E72020010391FAA1F1B1FAE1
:102BF00081F108430121B1EB601F02D182480068D6
:102C00001DE02020010391FAA1F1B1FA81F10843FE
:102C10000221B1EB601F02D17B48006A0FE0202047
:102C2000010391FAA1F1B1FA81F108430421B1EB5A
:102C3000601F02D17448406801E07348406A202157
:102C40000A0392FAA2F2B2FA82F2114301F01F02D1
:102C50000121914008400028BED1207800F00200F8
:102C600002285CD16848406800F00C0050B166480A
:102C7000406800F00C00082852D16348406800F416
:102C80008030E8BB2020022191FAA1F1B1FA81F154
:102C900008430121B1EB601F02D15B4800681DE0D1
:102CA0002020022191FAA1F1B1FA81F10843022119
:102CB000B1EB601F02D15448006A0FE020200221CE
:102CC00091FAA1F1B1FA81F108430421B1EB601F3F
:102CD00002D14D48406801E04B48406A2021022261
:102CE00092FAA2F2B2FA82F2114301F01F0201211C
:102CF0009140084028B12069012802D0012087E6D0
:102D00000EE04148006820F0F800F82292FAA2F2A2
:102D1000B2FA82F26169914008433B490860B1E030
:102D2000206970B3012191FAA1F0B0FA80F0374A1E
:102D300042F82010FEF708FF054606E0FEF704FF04
:102D4000401B022801D9032062E62020022191FACB
:102D5000A1F1B1FA81F108430121B1EB601F02D169
:102D6000294800681EE02020022191FAA1F1B1FA61
:102D700081F108430221B1EB601F03D12248006AB0
:102D800010E02CE02020022191FAA1F1B1FA81F1AA
:102D900008430421B1EB601F02D11B48406801E0E9
:102DA0001948406A2021022292FAA2F2B2FA82F273
:102DB000114301F01F020121914008400028BDD0BD
:102DC0001148006820F0F800F82292FAA2F2B2FA54
:102DD00082F26169914008430B49086052E000208B
:102DE000012191FAA1F1B1FA81F1084A42F82100DA
:102DF000FEF7AAFE05460BE0FEF7A6FE401B0228E2
:102E000006D9032004E60000001002400000424200
:102E10002020022191FAA1F1B1FA81F108430121A8
:102E2000B1EB601F02D1FB4800681DE020200221A9
:102E300091FAA1F1B1FA81F108430221B1EB601FCF
:102E400002D1F448006A0FE02020022191FAA1F19A
:102E5000B1FA81F108430421B1EB601F02D1ED48C2
:102E6000406801E0EB48406A2021022292FAA2F277
:102E7000B2FA82F2114301F01F0201219140084091
:102E80000028B9D1207800F00800082851D1A069A5
:102E900080B3012191FAA1F0B0FA80F0DE4A02EB92
:102EA0008000C0F88014FEF74FFE054606E0FEF7EE
:102EB0004BFE401B022801D90320A9E56020022116
:102EC00091FAA1F1B1FA81F108430121B1EB601F40
:102ED00002D1D04800681EE06020022191FAA1F1E1
:102EE000B1FA81F108430221B1EB601F03D1C94857
:102EF000006A10E01EE06020022191FAA1F1B1FA0F
:102F000081F108430421B1EB601F02D1C148406840
:102F100001E0C048406A6021022292FAA2F2B2FAAD
:102F200082F2114301F01F02012191400840002864
:102F3000BDD04FE00020012191FAA1F1B1FA81F159
:102F4000B54A02EB8101C1F88004FEF7FDFD05469C
:102F500006E0FEF7F9FD401B022801D9032057E5E2
:102F60006020022191FAA1F1B1FA81F10843012117
:102F7000B1EB601F02D1A74800681DE0602002216C
:102F800091FAA1F1B1FA81F108430221B1EB601F7E
:102F900002D1A048006A0FE06020022191FAA1F15D
:102FA000B1FA81F108430421B1EB601F02D19948C5
:102FB000406801E09748406A6021022292FAA2F23A
:102FC000B2FA82F2114301F01F0201219140084040
:102FD0000028BED1207800F00400042873D1002717
:102FE0008C48C06900F0805070B900BF8948C06942
:102FF00040F080508749C8610846C06900F08050A1
:10300000009000BF00BF01278448006800F4807072
:10301000B0B98248006840F4807080490860FEF7CB
:1030200093FD054606E0FEF78FFD401B642801D99D
:103030000320EDE47948006800F480700028F2D0A5
:1030400000BFE068012806D17248006A40F0010024
:103050007049086227E0E06858B96E48006A20F0BD
:1030600001006C4908620846006A20F0040008620A
:1030700019E0E06805280BD16648006A40F00400BA
:10308000644908620846006A40F0010008620AE0EC
:103090006048006A20F001005E4908620846006A44
:1030A00020F00400086200BFE068B8B3FEF74CFDF2
:1030B000054609E0FEF748FD401B41F28831884291
:1030C00002D90320A4E48BE04020022191FAA1F16F
:1030D000B1FA81F108430121B1EB601F02D14D48E3
:1030E00000681EE04020022191FAA1F1B1FA81F1BD
:1030F00008430221B1EB601F02D14648006A10E08C
:103100004020022191FAA1F1B1FA81F10843042192
:10311000B1EB601F03D13F48406802E010E03D483A
:10312000406A4021022292FAA2F2B2FA82F21143DC
:1031300001F01F020121914008400028BAD046E06A
:10314000FEF702FD054608E0FEF7FEFC401B41F2DB
:103150008831884201D903205AE44020022191FAA3
:10316000A1F1B1FA81F108430121B1EB601F02D155
:10317000284800681DE04020022191FAA1F1B1FA2F
:1031800081F108430221B1EB601F02D12148006A9E
:103190000FE04020022191FAA1F1B1FA81F1084338
:1031A0000421B1EB601F02D11A48406801E01948C0
:1031B000406A4021022292FAA2F2B2FA82F211434C
:1031C00001F01F020121914008400028BCD1012FCD
:1031D00005D11048C06920F080500E49C86100BF79
:1031E000E069002874D00B48406800F00C00082803
:1031F0006FD0E06902286DD100204FF0807191FA04
:10320000A1F1B1FA81F1044A42F82100FEF79CFCD9
:1032100005460CE0001002400000424200700040F1
:10322000FEF792FC401B022801D9032047E420202E
:10323000010591FAA1F1B1FA81F108430121B1EB45
:10324000601F02D1774800681DE02020010591FA37
:10325000A1F1B1FA81F108430221B1EB601F02D163
:103260007048006A0FE02020010591FAA1F1B1FA3F
:1032700081F108430421B1EB601F02D16948406825
:1032800001E06848406A20210A0592FAA2F2B2FAE7
:1032900082F2114301F01F020121914008400028F1
:1032A000BED1D4E9081008435E49496821F474117D
:1032B00008435C4948600120010691FAA1F1B1FA86
:1032C00081F1594A42F82100FEF73EFC054609E02B
:1032D000A5E092E041E0FEF737FC401B022801D94F
:1032E000032038E42020010591FAA1F1B1FA81F11F
:1032F00008430121B1EB601F02D14A4800681DE07C
:103300002020010591FAA1F1B1FA81F108430221CF
:10331000B1EB601F02D14348006A0FE02020010595
:1033200091FAA1F1B1FA81F108430421B1EB601FD8
:1033300002D13C48406801E03A48406A20210A0531
:1033400092FAA2F2B2FA82F2114301F01F020121B5
:10335000914008400028BED061E000204FF080710D
:1033600091FAA1F1B1FA81F12F4A42F82100FEF75A
:10337000EBFB054606E0FEF7E7FB401B022801D900
:1033800003202FE42020010591FAA1F1B1FA81F187
:1033900008430121B1EB601F02D1224800681DE003
:1033A0002020010591FAA1F1B1FA81F1084302212F
:1033B000B1EB601F02D11B48006A0FE0202001051D
:1033C00091FAA1F1B1FA81F108430421B1EB601F38
:1033D00002D11448406801E01248406A20210A05E1
:1033E00092FAA2F2B2FA82F2114301F01F02012115
:1033F000914008400028BED111E0E069012800D1C9
:103400007DE40848466806F48031206A814204D190
:1034100006F47011606A814201D001206FE400203F
:103420006DE40000001002400000424270B5044606
:103430002546681EB0F1807F01D301200FE0681E91
:103440004FF0E02148610F214FF0FF3002F0D8FA31
:1034500000204FF0E021886107200861002070BD46
:1034600010B50346002200BF93F83C00012801D1AB
:10347000022010BD012083F83C0000BF22F0FF00B5
:10348000CC6840EA040222F440708C6840EA0402EE
:1034900022F480604C6840EA040222F400600C6868
:1034A00040EA040222F480500C6940EA040222F44B
:1034B00000504C6940EA040222F480408C6A40EAE1
:1034C000040222F470200C8B40EA04420D4C186870
:1034D000A0420ED122F470008C8C40EA045222F0FB
:1034E0008070CC6940EA040222F000700C6A40EA65
:1034F00004021868426400BF002083F83C0000BF4B
:1035000000BFB6E7002C014010B504460CB90120FD
:1035100010BD94F83D0028B9002084F83C002046F6
:1035200000F02AF8022084F83D00211D206801F0F7
:1035300099FC012084F8480000BF84F83E00012176
:103540003F200155402001554120015542200155A1
:103550004320015500BF00BF012084F844004520EE
:103560000155462001554720015500BF012084F830
:103570003D000020CCE7000008B5094A01689142EF
:103580000DD100BF0749896941F40031054A9161B5
:103590001146896901F40031009100BF00BF08BDE8
:1035A000004401400010024010B586B004461421CA
:1035B00001A8FCF7D0FE1149206888421BD100BF4A
:1035C0000F48406940F400300D49486108464069A1
:1035D00000F40030009000BF00BF8814019002206A
:1035E00002900020039004900120059001A94FF063
:1035F0009040FEF7CBF906B010BD0000004401403A
:10360000001002402DE9F04104460D461646002701
:1036100000BF94F83C00012802D10220BDE8F081EF
:10362000012084F83C0000BF0C2E51D005DC4EB1C7
:10363000042E1ED0082E7AD133E0102E60D0142E26
:10364000F9D175E02946206801F05EFC20688069A8
:1036500040F00800216888612068806920F004003B
:103660002168886120688069296908432168886128
:1036700078E02946206801F093FC2068806940F4D6
:103680000060216888612068806920F4806021687A
:10369000886120688069296940EA01202168886181
:1036A00060E02946206801F0CDFC2068C06940F048
:1036B00008002168C8612068C06920F00400216802
:1036C000C8612068C069296908432168C86149E068
:1036D0002946206801F006FD2068C06940F40060BA
:1036E0002168C8612068C06920F480602168C861D1
:1036F0002068C069296940EA01202168C86131E079
:103700002946206801F024FD2068406D40F0080043
:10371000216848652068406D20F0040021684865F4
:103720002068406D29690843216848651AE017E060
:103730002946206801F03EFD2068406D40F400609D
:10374000216848652068406D20F4806021684865E4
:103750002068406D296940EA01202168486501E040
:10376000012700BF00BF00BF002084F83C0000BF5D
:10377000384653E710B504460CB9012010BD94F843
:103780003D0028B9002084F83C00204600F029F8CC
:10379000022084F83D00211D206801F063FB012018
:1037A00084F8480000BF84F83E0001213F20015505
:1037B000402001554120015542200155432001552B
:1037C00000BF00BF012084F8440045200155462079
:1037D00001554720015500BF012084F83D0000201D
:1037E000CCE7704770477047704700002DE9F047FD
:1037F00004462068C569206806682068876840F626
:103800000F0005EA0009B9F1000F0CD105F0200006
:1038100048B106F0200030B1A06E10B12046A16E74
:103820008847BDE8F087B9F1000F7DD007F00100AF
:1038300018B9BF4830400028F7D005F0010058B152
:1038400006F4807040B1012021680862D4F8840039
:1038500040F00100C4F8840005F0020058B107F000
:10386000010040B1022021680862D4F8840040F0D1
:103870000400C4F8840005F0040058B107F001000A
:1038800040B1042021680862D4F8840040F00200AE
:10389000C4F8840005F0080070B106F0200010B9EB
:1038A00007F0010040B1082021680862D4F88400C4
:1038B00040F00800C4F8840005F4006060B106F030
:1038C000806048B14FF4006021680862D4F8840039
:1038D00040F02000C4F88400D4F8840000284BD0C5
:1038E00005F0200038B106F0200020B1A06E10B124
:1038F0002046A16E8847D4F884A02068806800F034
:103900004000402802D00AF0280070B3204601F0A1
:1039100080FD2068806800F04000402821D100BF71
:1039200000BF2168083100E027E051E8001F21F0C6
:1039300040002168083141E80002002AF1D100BFAF
:10394000606F50B17B48616F4863606FFDF790FF17
:1039500090B1606F416B88470EE02046FFF744FF4F
:103960000AE02046FFF740FF06E0FFE72046FFF7AA
:103970003BFF0020C4F8840053E7206E01286ED17D
:1039800005F0100000286AD006F010000028FAD0D8
:103990001020216808622068806800F040004028FC
:1039A0005ED1606F006840681FFA80F8B8F1000FC0
:1039B00054D0B4F85800404550DDA4F85A80606FE8
:1039C000806920283FD000BF00BF216851E8001F58
:1039D00021F48070226842E800010029F5D100BF7F
:1039E00000BF00BF2168083151E8001F21F001002D
:1039F0002168083141E80002002AF3D100BF00BF6E
:103A000000BF2168083151E8001F21F04000216803
:103A1000083141E80002002AF3D100BF2020C4F899
:103A200080000020206600BF00BF216851E8001F11
:103A300021F01000226842E800010029F5D100BF02
:103A4000606FFDF7E8FE02206066B4F85800B4F835
:103A50005A20801A81B22046FFF7C4FEE1E641E019
:103A600034F8580F6188401A1FFA80F86088583C73
:103A7000B8B3B8F1000F34D000BF00BF216851E8DF
:103A8000001F21F49070226842E800010029F5D15E
:103A900000BF00BF00BF2168083151E8001F21F0BE
:103AA00001002168083141E80002002AF3D100BF7B
:103AB0002020C4F8800000202066A06600BF00BF60
:103AC000216851E8001F21F01000226842E800013F
:103AD0000029F5D100BF0220606641462046FFF76D
:103AE00081FE9EE605F4801050B107F4800038B1E5
:103AF0004FF48010216808622046FFF774FE90E6BC
:103B000005F0800040B106F0800028B1E06E10B1F1
:103B10002046E16E884784E605F0400030B106F0AB
:103B2000400018B1204601F0A7FC7AE600BF78E615
:103B300020010004FB53000810B504460CB9012015
:103B400010BDA06900B100E000BFE06F28B90020FF
:103B500084F87800204600F029F82420E0672068E7
:103B6000006820F0010021680860606A10B12046FA
:103B700001F054FB204601F08BFD012800D1DFE766
:103B80002068406820F49040216848602068806880
:103B900020F02A00216888602068006840F0010059
:103BA00021680860204601F0B5FBC9E710B586B072
:103BB0000446142101A8FCF7CEFB2A49206888425C
:103BC0004DD100BF2848C06940F400302649C86183
:103BD0000846C06900F40030009000BF00BF00BF7D
:103BE0000846406940F4003048610846406900F4E6
:103BF0000030009000BF00BF00BF0846406940F49D
:103C0000802048610846406900F48020009000BF91
:103C100000BF4FF40040019002200290002003906A
:103C2000032004900720059001A94FF09040FDF774
:103C3000ADFE082001900220029000200390032096
:103C400004900720059001A90848FDF79FFE002277
:103C500011462620FEF7B6FB2620FEF7A3FB06B092
:103C600010BD000000440040001002400004004865
:103C700070B504460D461646D4F8800020281DD1A4
:103C800005B10EB9012070BD002020662068406893
:103C900000F4000060B100BF00BF216851E8001FC0
:103CA00041F08060226842E800010029F5D100BFA0
:103CB00032462946204601F0C1FDE4E70220E2E752
:103CC00010B50446094884420FD1094800780128FC
:103CD00004D10F210748FEF766FA06E00448007891
:103CE00018B90F210348FEF77EFA10BD4C020020E0
:103CF00008000020240100207047000010B50021BA
:103D00000148FDF7CDFF10BD2401002006293AD25D
:103D1000DFE801F00C151E2730030268D2F8842377
:103D200042F001030268C2F884332DE00268D2F841
:103D3000842342F002030268C2F8843324E002685C
:103D4000D2F8842342F004030268C2F884331BE0F3
:103D50000268D2F8842342F008030268C2F8843370
:103D600012E00268D2F8842342F010030268C2F81D
:103D7000843309E00268D2F8842342F02003026809
:103D8000C2F8843300E000BF00BF704770B504463E
:103D90002068D0F888532068D0F8906305F00100BF
:103DA00048B106F0010030B101212068C0F88C1341
:103DB0002046FDF770FF05F0020048B106F0020052
:103DC00030B102212068C0F88C132046FDF764FF53
:103DD00005F0040048B106F0040030B10421206869
:103DE000C0F88C132046FDF758FF05F0080048B1D5
:103DF00006F0080030B108212068C0F88C13204676
:103E0000FDF74CFF05F0100048B106F0100030B18E
:103E100010212068C0F88C132046FDF740FF05F004
:103E2000200048B106F0200030B120212068C0F801
:103E30008C132046FEF755F870BD10B503681A685C
:103E400022F007028B681A4322F01802CB681A434B
:103E500003681A600B68046863614B680468A361B7
:103E600010BD10B50246146820681468D4F8A03359
:103E700020F020004C69204320F400608C6920432E
:103E800020F48060CC69204320F0C0600C6A20439D
:103E900020F000604C6A204320F040408C6A40EAE9
:103EA000840020F000500C6B204323F48033CC6A54
:103EB0002343146820601468C4F8A03310BD2DE9B2
:103EC000F04104462068D0F888732068D0F89083C9
:103ED000206845682068C66807F4803090B108F40F
:103EE000803078B14FF480312068C0F88C13012005
:103EF00084F8C10000BF002084F8C00000BF204645
:103F0000FDF730FE07F4003050B108F4003038B14E
:103F10004FF400312068C0F88C132046FDF71AFEDC
:103F200005F0010048B106F0010030B10120216820
:103F3000886005212046FDF710FE05F0020048B11B
:103F400006F0020030B10220216888600521204679
:103F5000FDF704FE05F0040048B106F0040030B19E
:103F600004202168886005212046FDF7F8FD05F052
:103F7000080048B106F0080030B1082021688860C8
:103F800005212046FDF7ECFD05F0100048B106F0D4
:103F9000100030B110202168886005212046FDF70F
:103FA00093FF05F0200040B106F0200028B120204A
:103FB000216888602046FDF793FF05F0400048B176
:103FC00006F0400030B1402021688860052120467D
:103FD000FDF779FFBDE8F081F0B5154600240768CC
:103FE000803707EBC1177A6E0768803707EBC11778
:103FF000BE6B202D2FD00CDC042D16D004DC012D3F
:1040000012D0022D3BD124E0082D23D0102D36D123
:104010000CE0402D0BD0802D1ED0B5F5807F07D051
:10402000B5F5007F2BD118E000BF00BF00BF00BF77
:10403000D3F804C00768803707EBC117C7F83CC046
:10404000D3F808C00768803707EBC117C7F840C02E
:1040500016E000BF00BF00BF00BFD3F804C0076870
:10406000803707EBC117C7F844C0D3F808C007680A
:10407000803707EBC117C7F848C0102400E000BF25
:1040800000BFFE27A740BA431F68A7403A43DF6836
:10409000A7403A431F69A7403A435F69A7403A43A4
:1040A0009F69A7403A431F69082F08D106F400779B
:1040B0002FB906F0007717B9DF69A7403A430768C0
:1040C000803707EBC1177A66F0BD2DE9F041044651
:1040D0000D462068803000EBC510466820688030AF
:1040E00000EBC510C76806F0010060B107F00100E1
:1040F00048B101212068803000EBC510816029465D
:104100002046FDF72AFD06F0020060B107F002002C
:1041100048B102212068803000EBC510816029463B
:104120002046FDF71BFD06F0040060B107F0040017
:1041300048B104212068803000EBC5108160294619
:104140002046FDF70CFD06F0080060B107F00800FE
:1041500048B108212068803000EBC51081602946F5
:104160002046FDF7FDFC06F0100060B107F01000DE
:1041700048B110212068803000EBC51081602946CD
:104180002046FDF7A1FE06F0400060B107F04000B8
:1041900048B140212068803000EBC510816029467D
:1041A0002046FDF790FE06F0800060B107F0800029
:1041B00048B180212068803000EBC510816029461D
:1041C0002046FDF7C8FC06F4807068B107F48070E3
:1041D00050B14FF480712068803000EBC5108160D1
:1041E00029462046FDF7B8FC06F4007068B107F4D4
:1041F000007050B14FF400712068803000EBC510A2
:10420000816029462046FDF736FE06F4806068B1DD
:1042100007F4806050B14FF480612068803000EB7B
:10422000C510816029462046FDF724FE06F4006093
:1042300068B107F4006050B14FF40061206880302D
:1042400000EBC510816029462046FDF716FE06F4F6
:10425000805068B107F4805050B14FF4805120680D
:10426000803000EBC510816029462046FDF704FE32
:1042700006F4005068B107F4005050B14FF40051FB
:104280002068803000EBC510816029462046FDF78C
:1042900068FC06F4804068B107F4804050B14FF4E8
:1042A00080412068803000EBC5108160294620469F
:1042B000FDF7F0FCBDE8F08130B50468803404EB14
:1042C000C114236823F007039468234323F01803E1
:1042D000D46823430468803404EBC1142360156858
:1042E0000468803404EBC114656155680468803447
:1042F00004EBC114A56130BD2DE9F0410346D3F8AC
:1043000000C00CF1800C0CEBC11CDCF800C02CF0E0
:104310007048D3F800C00CF1800C0CEBC11CCCF839
:104320000080D3F800C00CF1800C0CEBC11CDCF851
:104330000000D3F800C00CF1800C0CEBC11CDCF8C1
:104340006850D3F800C00CF1800C0CEBC11CDCF8F9
:104350006460D3F800C0DCF8A04320F02000D2F85D
:1043600014C04CEA000020F40060D2F818C04CEAF7
:10437000000020F48060D2F81CC04CEA000020F05D
:10438000C060D2F820C04CEA000020F00060D2F8F3
:1043900024C04CEA000020F07040D2F828C04CEA5B
:1043A000000020F40030D2F830C0BCF1005F01D131
:1043B00040F4003020F04000D2F834C04CEA000055
:1043C00020F48020D2F850C04CEA000020F0FC70AD
:1043D000D2F848C04CEA000025F01F0592F838C01A
:1043E0000CF01F0C4CEA050525F00045D2F83CC046
:1043F0004CEA0505D2F834C0BCF1000F05D126F413
:104400008076D2F840C04CEA0606D2F844C0BCF52B
:10441000606F04D0D2F844C0BCF5F05F04D1D2F88C
:1044200034C0BCF1400F05D126F4F056D2F844C098
:104430004CEA0606D76C052927D2DFE801F0030A0B
:1044400011181F0024F40034D2F82CC044EA4C04A4
:104450001CE024F48024D2F82CC044EA8C0415E03B
:1044600024F40024D2F82CC044EACC040EE024F456
:104470008014D2F82CC044EA0C1407E024F4001491
:10448000D2F82CC044EA4C1400E000BF00BFD3F8BF
:1044900000C00CF1800C0CEBC11CCCF80000D3F870
:1044A00000C00CF1800C0CEBC11CCCF86850D3F8A8
:1044B00000C00CF1800C0CEBC11CCCF86460D3F88C
:1044C00000C00CF1800C0CEBC11CCCF85470D3F87C
:1044D00000C0CCF8A043BDE8F08100BFFEE70000BB
:1044E00010B500210948FCF72DF900210848FCF718
:1044F00029F90122074801880448FCF7D3FD01226D
:10450000054801880248FCF7CDFD10BD5C00002085
:10451000AC000020200000202200002000B5002276
:104520009FED0A1ADFED0A0A9FED0A0A0A490B48B5
:10453000FBF7E2FF00229FED051ADFED090A9FED70
:10454000090A09490948FBF7D7FF00BD0AD7A33D6F
:10455000624E77C1A2F4F83B200000202400002026
:10456000FD137D414B54FFBB220000204000002082
:1045700000B589B000200690079008901821684681
:10458000FBF7E9FE4FF0A0401C490860002048609E
:1045900000211A4881600161417680F82010C162D3
:1045A000012181620021C1600121C161002180F8E7
:1045B000301004214161002101764163FCF7D0FBFA
:1045C00008B1FCF7BCF80020069006A90B48FCF7E0
:1045D00017F908B1FCF7B3F8012000900190002012
:1045E000039002900490059069460448FCF7A6F9F0
:1045F00008B1FCF7A4F809B000BD00005C00002081
:1046000000B587B0182101A8FBF7A5FE1848194985
:1046100008600020486000211648816001614176F1
:1046200080F82010C162012181620021C160012156
:10463000C161002180F83010042141610021017620
:104640004163FCF78DFB08B1FCF779F8012001907C
:1046500002900020049003900590069001A905485F
:10466000FCF76CF908B1FCF76AF807B000BD000070
:1046700000010050AC00002010B50B480B49086049
:1046800010204860002109488160C16001614161DA
:10469000017641768176C17601774177FCF778FF24
:1046A00008B1FCF74CF810BD00640040FC0000208D
:1046B00000B587B0142102A8FBF74DFE00BF3648B5
:1046C000406940F48000344948610846406900F47C
:1046D0008000019000BF00BF00BF0846406940F461
:1046E000003048610846406900F40030019000BF86
:1046F00000BF00BF0846406940F48020486108467A
:10470000406900F48020019000BF00BF0022C0215A
:104710004FF09040FDF712FA002246F2C1011F4807
:10472000FDF70CFAC02002900120039000200490B5
:10473000059002A94FF09040FDF728F9C1200290A2
:104740000120039000200490059002A91348FDF772
:104750001DF94FF48050029000200390049002A9AC
:104760000E48FDF713F94FF4C0400290112003905A
:1047700000200490059002A90848FDF707F93020B1
:1047800002904FF4881003900020049002A903487F
:10479000FDF7FCF807B000BD00100240000400481F
:1047A00000B5ADB0002029902A902B902C90542178
:1047B00014A8FBF7D0FD0020119012901390242133
:1047C00008A8FBF7C8FD20216846FBF7C4FD7B481D
:1047D0007B49086000204860002179488160FDF72E
:1047E00073FA08B1FBF7ABFF0C217548FDF7BBF975
:1047F00008B1FBF7A4FF0A217148FDF73FFB08B1A0
:10480000FBF79DFF42F6E800299001202A90022044
:104810002B9008202C9029AA00216948FDF762FB03
:1048200008B1FBF78CFF1020149000201590169013
:10483000179001201890002019901A901B901C903E
:104840004FF000601D9000201E901F904FF0005010
:10485000209000202190229023904FF4807024908B
:104860000020259026902790289014AA00215448D3
:10487000FDF7D9FC08B1FBF762FF0020149014AAE1
:1048800001214F48FDF7CFFC08B1FBF758FFB420DA
:10489000119011AB012200214948FDF740FB08B1FE
:1048A000FBF74DFF41F2AF101190002012901390D2
:1048B00011AB022201214248FDF731FB08B1FBF7A1
:1048C0003EFF41F27440119011AB042200213C489C
:1048D000FDF725FB08B1FBF732FF42F26F50119054
:1048E00011AB082201213648FDF719FB08B1FBF78F
:1048F00026FF00200890B420099000200A900B9019
:104900000C90B4200D9000200E900F90109008AAEB
:1049100000212B48FDF768F908B1FBF710FF08AA42
:1049200001212748FDF760F908B1FBF708FF0020D7
:104930000090082001902020029000200390049015
:104940000590069007906B46012200211C48FDF758
:1049500000FC08B1FBF7F3FE10200190402002900C
:104960006B46042201211648FDF7F3FB08B1FBF763
:10497000E6FE0020019002906B46022200211048C2
:10498000FDF7E7FB08B1FBF7DAFE6B4608220121D1
:104990000B48FDF7DEFB08B1FBF7D1FE00202A90A3
:1049A00029AA01210648FDF79DFA08B1FBF7C7FEC9
:1049B0000348FDF72FFA2DB000BD00000074014040
:1049C0002401002000B593B01C210CA8FBF7C3FC08
:1049D0002C2101A8FBF7BFFC22482349086047208F
:1049E000486000212048816041F28731C160002188
:1049F000016141618161FEF787FD08B1FBF79FFE10
:104A00001948FEF7B7FE08B1FBF799FE60200C903D
:104A100040F6C4100D9000200E900F901090119051
:104A2000129000220CA91048FEF7ECFD08B1FBF72C
:104A300086FE0020019002900390049005904FF4B0
:104A400000500690002007900B9001A90648FEF741
:104A500007FD08B1FBF773FE0348FEF7A5FD13B091
:104A600000BD0000004401400002002010B50D48C8
:104A70000D4908604FF4E130486000210A48816028
:104A8000C16001610C21416100218161C16101624C
:104A90000020054948620846FFF74EF808B1FBF7C9
:104AA0004EFE10BD004400404C02002000BFFEE757
:104AB00000BFFEE770B500240EE00021204600F0A4
:104AC000D4F8002504E0002000F065F9681CC5B2A8
:104AD000802DF8DB601CC4B2082CEEDB70BD00003A
:104AE00010B5012240210448FDF728F80122802159
:104AF0000148FDF723F810BD0004004870B50546D5
:104B0000002413E08020204100EA050280210E48A5
:104B1000FDF714F8012240210B48FDF70FF80022A1
:104B200040210948FDF70AF8601CC4B2082CE9DBF3
:104B3000012240210448FDF701F8002240210248EB
:104B4000FCF7FCFF70BD00000004004810B5012216
:104B500080210948FCF7F2FF012240210648FCF7BA
:104B6000EDFF002280210448FCF7E8FF00224021ED
:104B70000148FCF7E3FF10BD0004004810B5002217
:104B800080210748FCF7DAFF012240210448FCF7A6
:104B9000D5FF012280210248FCF7D0FF10BD0000A4
:104BA0000004004870B5002406E0002500E06D1CFC
:104BB000B5F57A7FFBD3641CB4F57A7FF5D3FFF7A4
:104BC0008FFFAE2000F0D7F8D52000F0D4F8802079
:104BD00000F0D1F8A82000F0CEF83F2000F0CBF88C
:104BE000D32000F0C8F8002000F0C5F8402000F005
:104BF000C2F8A12000F0BFF8C82000F0BCF8DA200D
:104C000000F0B9F8122000F0B6F8812000F0B3F8F7
:104C1000CF2000F0B0F8D92000F0ADF8F12000F07E
:104C2000AAF8DB2000F0A7F8302000F0A4F8A420B8
:104C300000F0A1F8A62000F09EF88D2000F09BF86F
:104C4000142000F098F8AF2000F095F8FFF732FF3D
:104C500070BD0246012005E001F0010303B150439D
:104C6000524349080029F7D1704770B505460C46F4
:104C700045F0B00000F07FF8102141EA141000F078
:104C80007AF804F00F0000F076F870BD2DE9F041DD
:104C900005460E461746721ED206110E6A1E5206B1
:104CA000100EFFF7E2FF002409E0A7F12001134AEC
:104CB00002EB0111085D00F06EF8601CC4B2082C14
:104CC000F3DB721ED206110E6A1E012303EB4202B1
:104CD000D0B2FFF7CAFF00240BE0A7F12001074A7A
:104CE00002EB011204F10801505C00F054F8601C62
:104CF000C4B2082CF1DBBDE8F08100001A5D0008A9
:104D00002DE9F04780460F4615461E460DB1284650
:104D100000E068420546002415E0301B411E0A20D1
:104D2000FFF797FFB5FBF0F00A21B0FBF1F201FBB2
:104D3000120000F130093819C1B24A464046FFF767
:104D4000A5FF601CC4B2B442E7DBBDE8F0872DE9E3
:104D5000F04107460E461546002407E02A5D30194B
:104D6000C1B23846FFF792FF601CC4B2285D00282C
:104D7000F4D1BDE8F08110B50446FFF7E7FE7820D6
:104D8000FFF7BCFE0020FFF7B9FE2046FFF7B6FE96
:104D9000FFF7F4FE10BD10B50446FFF7D7FE7820EC
:104DA000FFF7ACFE4020FFF7A9FE2046FFF7A6FE66
:104DB000FFF7E4FE10BD7047704710B5FDF78CFAA1
:104DC00010BD00B597B028210DA8FBF7C4FA142137
:104DD00008A8FBF7C0FA1C2101A8FBF7BCFA0120C8
:104DE0000D904FF4A0200E9000200F900120119004
:104DF00002201490C10315914FF4E01116910DA8F3
:104E0000FDF702FE08B1FBF79AFC0F200890022084
:104E1000099000200A904FF480600B9000200C90C5
:104E2000022108A8FDF726FC08B1FBF788FC4FF427
:104E3000814001904FF4807005900001079001A817
:104E4000FDF712FB08B1FBF77AFC17B000BD0000BC
:104E50000348006840F47000014908607047000092
:104E600088ED00E010B50268224B984205D0B0F101
:104E7000804F02D0204B984203D122F070024B6841
:104E80001A431C4B98420ED0B0F1804F0BD01A4BF6
:104E9000984208D0194B984205D0194B984202D03D
:104EA000184B984203D122F44072CB681A4322F087
:104EB00080034C6943EA040202608B68C3620B689A
:104EC00083620C4B984208D00C4B984205D00C4B97
:104ED000984202D00B4B984201D10B690363012326
:104EE0004361036903F001031BB1036923F001036C
:104EF000036110BD002C014000040040004001404F
:104F0000004401400048014030B5026A056A25F0BE
:104F100001050562436884691C4D2C4024F003049C
:104F20000D682C4322F002028D682A43184DA842D6
:104F300000D10BE0174DA84200D107E0164DA84262
:104F400000D103E0154DA84206D100BF22F00802AF
:104F5000CD682A4322F004020D4DA84208D00D4D21
:104F6000A84205D00C4DA84202D00C4DA84207D152
:104F700023F4807323F400734D692B438D692B4315
:104F8000436084614D684563026230BD8FFFFEFF60
:104F9000002C014000400140004401400048014015
:104FA00030B5026A056A25F0100505624368846918
:104FB0001F4D2C4024F440740D6844EA052422F06F
:104FC00020028D6842EA05121A4DA84200D10BE07A
:104FD000194DA84200D100BF184DA84200D100BF12
:104FE000174DA84207D106E022F08002CD6842EAC0
:104FF000051222F040020F4DA84208D00E4DA842E3
:1050000005D00E4DA84202D00D4DA84209D123F47F
:10501000806323F400634D6943EA85038D6943EAA5
:105020008503436084614D688563026230BD000082
:10503000FF8FFFFE002C0140004001400044014072
:105040000048014030B5026A056A25F480750562A2
:105050004368C4691E4D2C4024F003040D682C43A2
:1050600022F400728D6842EA05221A4DA84200D14E
:105070000BE0194DA84200D100BF184DA84200D145
:1050800000BF174DA84207D106E022F40062CD68A8
:1050900042EA052222F480620E4DA84208D00E4D4D
:1050A000A84205D00D4DA84202D00D4DA84209D10D
:1050B00023F4805323F400534D6943EA05138D69AB
:1050C00043EA05134360C4614D68C563026230BDA5
:1050D0008FFFFEFF002C01400040014000440140D2
:1050E0000048014030B5036A056A25F48055056221
:1050F0004468C269114D2A4022F440720D6842EAA8
:10510000052223F400538D6843EA05330C4DA84271
:1051100008D00C4DA84205D00B4DA84202D00B4D33
:10512000A84204D124F480444D6944EA85144460C3
:10513000C2614D680564036230BD0000FF8FFFFE51
:10514000002C014000400140004401400048014063
:1051500030B5026A056A25F4803505624368446DFE
:105160000F4D2C400D682C4322F400320D8942EA89
:1051700005420C4DA84208D00B4DA84205D00B4D5E
:10518000A84202D00A4DA84204D123F480334D69CD
:1051900043EA0523436044654D688565026230BD7E
:1051A0008FFFFEFF002C0140004001400044014001
:1051B0000048014030B5026A056A25F48015056291
:1051C0004368446D104D2C400D6844EA052422F4D8
:1051D00000120D8942EA05520C4DA84208D00C4D30
:1051E000A84205D00B4DA84202D00B4DA84204D1D5
:1051F00023F480234D6943EA8523436044654D6869
:10520000C565026230BD0000FF8FFFFE002C01402B
:1052100000400140004401400048014090F8241043
:1052200001F00801082907D10168496821F400410B
:10523000426B11430268516090F8241001F00101A3
:1052400039B10168496821F40031826A114302686A
:10525000516090F8241001F00201022907D1016881
:10526000496821F48031C26A11430268516090F8A4
:10527000241001F00401042907D10168496821F4D0
:105280008021026B11430268516090F8241001F0F4
:105290001001102907D10168896821F48051826BBF
:1052A00011430268916090F8241001F02001202938
:1052B00007D10168896821F40051C26B114302686B
:1052C000916090F8241001F04001402913D1016849
:1052D000496821F48011026C114302685160016C2D
:1052E000B1F5801F07D10168496821F4C001426C03
:1052F00011430268516090F8241001F08001802968
:1053000007D10168496821F40021826C11430268C9
:105310005160704738B504460020C4F88400FCF79B
:1053200013FC05462068006800F00800082820D11A
:105330006FF07E402B4600224FF400110090204673
:1053400000F0F6FAA8B100BF00BF216851E8001FC5
:1053500021F08000226842E800010029F5D100BF59
:105360002020E06700BF002084F8780000BF032001
:1053700038BD2068006800F00400042830D16FF0C8
:105380007E402B4600224FF480010090204600F022
:10539000CFFA28B300BF00BF216851E8001F21F4F5
:1053A0009070226842E800010029F5D100BF00BFDB
:1053B00000BF2168083151E8001F21F00100216879
:1053C000083141E80002002AF3D100BF2020C4F8D0
:1053D000800000BF002084F8780000BF0320C7E7EA
:1053E0002020E067C4F8800000202066606600BFCF
:1053F00084F8780000BF00BFBAE770B505466C6A54
:105400000020A4F85A00A4F852002046FEF7ECF958
:1054100070BD00BF00BF026852E8002F22F49071F7
:10542000036843E80012002AF5D100BF00BF00BFA7
:105430000268083252E8002F22F0010102680832A7
:1054400042E80013002BF3D100BF016E01290CD1FB
:1054500000BF00BF026852E8002F22F0100103686D
:1054600043E80012002AF5D100BF2021C0F88010C7
:10547000002101668166704710B5044600BF00BF79
:10548000216851E8001F21F04000226842E8000135
:105490000029F5D100BF2020E0670020E06620460B
:1054A000FEF72AFC10BD2DE9F0410446B4F85C700B
:1054B000D4F88000222869D12068868C656D06EAC0
:1054C00007002880606D801C6065B4F85A00401E9B
:1054D000A4F85A00B4F85A0000285DD100BF00BFFC
:1054E000216851E8001F21F49070226842E8000111
:1054F0000029F5D100BF00BF00BF2168083151E885
:10550000001F21F001002168083141E80002002A53
:10551000F3D100BF2020C4F880000020A0666066A0
:105520002068406800F4000060B100BF00BF21683F
:1055300051E8001F21F08060226842E80001002944
:10554000F5D100BF206E01281CD10020206600BFCD
:1055500000BF216851E8001F21F01000226842E8D6
:1055600000010029F5D100BF2068C069C0F3001018
:1055700010B1102021680862B4F858102046FEF7D8
:1055800031F909E02046FEF79BFB05E020688069C1
:1055900040F0080021688861BDE8F08170B50446DC
:1055A000B4F85C60D4F88000222869D12068858C2A
:1055B000F0B22840616D0870606D401C6065B4F801
:1055C0005A00401EA4F85A00B4F85A0000285DD1D1
:1055D00000BF00BF216851E8001F21F490702268CD
:1055E00042E800010029F5D100BF00BF00BF2168DB
:1055F000083151E8001F21F001002168083141E81D
:105600000002002AF3D100BF2020C4F8800000204F
:10561000A06660662068406800F4000060B100BFCA
:1056200000BF216851E8001F21F08060226842E835
:1056300000010029F5D100BF206E01281CD10020F7
:10564000206600BF00BF216851E8001F21F0100054
:10565000226842E800010029F5D100BF2068C06936
:10566000C0F3001010B1102021680862B4F858107F
:105670002046FEF7B7F809E02046FEF721FB05E0DB
:105680002068806940F008002168886170BD0000D2
:105690002DE9F04704464FF0000A2169A06808434D
:1056A00061690843E16940EA0108206800685D49D2
:1056B000084040EA0800216808602068406820F43B
:1056C0004050E168084321684860D4F81880206A97
:1056D00040EA08082068806820F4306040EA08004A
:1056E0002168886000BF50492068884216D14F4821
:1056F000006B00F0030030B1012808D0022808D068
:10570000032808D101E0002607E0022605E0042670
:1057100003E0082601E0102600BF0CE044492068A1
:10572000884201D1002606E042492068884201D122
:10573000002600E0102600BFE069B0F5004F39D127
:10574000092E17D2DFE806F005090D160F161616FA
:105750001300FDF7EBF8054610E0FDF7FDF80546F0
:105760000CE0354D0AE0FDF70DF9054606E04FF473
:10577000004503E000254FF0010A00BF00BF85B3DC
:105780006800616800EB5100B0FBF1F7102F0ED3F9
:10579000B7F5803F0BD24FF6F07007EA0009C7F368
:1057A000420049EA00092068C0F80C9034E04FF04C
:1057B000010A31E0092E18D2DFE806F005090D17BD
:1057C0000F1717171400FDF7B1F8054611E0FDF7A4
:1057D000C3F805460DE0184D0BE0FDF7D3F805467C
:1057E00007E019E04FF4004503E000254FF0010AFF
:1057F00000BF00BF85B1606805EB50006168B0FB79
:10580000F1F7102F06D3B7F5803F03D2B8B2216865
:10581000C86001E04FF0010A0020A066E066504633
:10582000BDE8F087F369FFEF003801400010024047
:10583000004400400048004000127A0030B50346A2
:105840005965A3F85820A3F85A200020986600BF95
:105850009868B0F5805F0AD1186920B940F2FF104E
:10586000A3F85C0020E0FF20A3F85C001CE098682F
:1058700048B9186918B9FF20A3F85C0014E07F202C
:10588000A3F85C0010E09868B0F1805F09D1186956
:1058900018B97F20A3F85C0006E03F20A3F85C0065
:1058A00002E00020A3F85C0000BF0020C3F88400E1
:1058B0002220C3F8800000BF00BF1C68083454E8F1
:1058C000004F44F001001C68083444E80005002D36
:1058D000F3D100BF9868B0F5805F04D1186910B9A2
:1058E0001148986601E011489866186960B100BFD8
:1058F00000BF1C6854E8004F44F490701D6845E8F0
:105900000004002CF5D10CE000BF00BF1C6854E877
:10591000004F44F020001D6845E80004002CF5D13C
:1059200000BF002030BD0000A75400089D550008AE
:105930002DE9F04104460D4617469846069E41E083
:10594000701C00283ED0FCF7FFF8A0EB0800B04226
:1059500000D816B90320BDE8F0812068006800F087
:10596000040070B3802D2DD0402D2BD02068C0694D
:10597000C0F3C00078B10820216808622046FFF714
:1059800048FD0820C4F8840000BF002084F8780097
:1059900000BF0120DFE72068C069C0F3C02080B1EC
:1059A0004FF40060216808622046FFF732FD202096
:1059B000C4F8840000BF002084F8780000BF0320F2
:1059C000C9E7FFE72068C0692840A84201D101204B
:1059D00000E00020B842B3D00020BCE710B5024878
:1059E000FDF704FF10BD00004C02002000BFFEE7E1
:1059F00002480068C0F30220704700000CED00E090
:105A000010B5002804DB0A07130E054A135406E0FC
:105A10000A07140E034A00F00F031B1FD45410BDD5
:105A200000E400E018ED00E0FCF762FCFFF7C9F9C4
:105A3000FEF73EFEFEF79CFDFEF7E2FDFEF71CFEC4
:105A4000FEF7AEFEFEF7BEFFFFF710F80122402181
:105A50004FF09040FCF772F8012280214FF0904007
:105A6000FCF76CF8012211468B48FCF767F8FFF74A
:105A700099F88AA202210120FFF769F9FEF74EFD8D
:105A8000FEF72EFD4FF400318748FCF744FB4FF43E
:105A900080218548FCF73FFB0F218348FCF7A3FBDF
:105AA00081480068D0F88C0040F010017E48006802
:105AB000C0F88C1001227D497D48FEF7D9F8FAF72D
:105AC000E1FD4FF4FA70FBF74DFFFEF7F3FF002204
:105AD00040214FF09040FCF731F8002201216E4840
