:020000040800F2
:10000000300900202902000801410008A53C000831
:10001000FD40000801060008A14F00080000000094
:10002000000000000000000000000000094400087B
:100030001907000800000000074400080B440008EE
:10004000430200084302000843020008430200087C
:10005000430200084302000843020008430200086C
:1000600043020008430200081B070008B10600080D
:10007000C1060008430200084302000843020008CA
:10008000430200084302000843020008430200083C
:1000900005060008150600084302000825070008A9
:1000A000430200084302000843020008430200081C
:1000B0004302000843020008000000004302000859
:1000C0004302000800000000000000004302000896
:1000D0000000000043020008914F0008430200089E
:1000E0004302000843020008000000000000000076
:1000F0000000000000000000000000000000000000
:1001000000000000000000000000000000000000EF
:100110000000000000000000AD4400084302000899
:1001200000000000000000000000000000000000CF
:1001300000000000000000000000000000000000BF
:1001400043020008430200080000000043020008C8
:10015000430200084302000843020008430200086B
:1001600043020008430200080000000000000000F5
:10017000000000000000000000000000000000007F
:10018000000000004302000800F002F800F03CF814
:100190000AA090E8000C82448344AAF10107DA45E2
:1001A00001D100F031F8AFF2090EBAE80F0013F0F8
:1001B000010F18BFFB1A43F001031847D056000087
:1001C000F0560000103A24BF78C878C1FAD8520718
:1001D00024BF30C830C144BF04680C6070470000C1
:1001E0000023002400250026103A28BF78C1FBD840
:1001F000520728BF30C148BF0B6070471FB505F0DC
:100200002BF81FBD10B510BD00F0CFF81146FFF759
:10021000F5FF04F0E3FE00F0EDF803B4FFF7F2FFA2
:1002200003BC00F0F5F80000094880470948004782
:10023000FEE7FEE7FEE7FEE7FEE7FEE7FEE7FEE796
:10024000FEE7FEE704480549054A064B70470000F3
:10025000994400088901000830030020300900207B
:10026000300500203005002053EA020C00F06980C0
:100270002DE9F04B4FF00006002B1FBFB3FA83F5BA
:1002800003FA05F424FA05F65E4012BF1643B2FAEB
:1002900082F502FA05F4C5F120051EBF22FA05FC1D
:1002A00044EA0C04203556EA044C4FEA144418BFC3
:1002B000641C4FF000084FF00009904271EB030CF2
:1002C00039D3002919BFB1FA81F701FA07F6B0FA5C
:1002D00080F700FA07F6C7F120071EBF20FA07FCD7
:1002E00046EA0C062037B6FBF4FCA7EB0507103FE7
:1002F00007F01F0BCBF120060CFA0BFB2CFA06F6CD
:1003000044BFB3460026202FA4BF5E464FF0000B2B
:100310005BEA060C08BF4FF0010B19EB0B09ABFBB6
:10032000027C48EB0608C01B06FB02CC0BFB03CC8F
:1003300071EB0C01C1E70B46024641464846BDE859
:10034000F08B13B54FF000004FF00001AFF30080C9
:10035000BDE81C4070474FF0000200B513469446BC
:100360009646203922BFA0E80C50A0E80C50B1F10D
:100370002001BFF4F7AF090728BFA0E80C5048BF21
:100380000CC05DF804EB890028BF40F8042B08BFBF
:10039000704748BF20F8022B11F0804F18BF00F8BB
:1003A000012B7047704770477047754600F02CF876
:1003B000AE4605006946534620F00700854618B052
:1003C00020B5FFF73FFFBDE820404FF000064FF09B
:1003D00000074FF000084FF0000B21F00701AC467A
:1003E000ACE8C009ACE8C009ACE8C009ACE8C00999
:1003F0008D46704710B50446AFF300802046BDE837
:100400001040FFF70ABF000000487047CC020020F0
:1004100001491820ABBEFEE726000200704770B508
:1004200005466C6A206C00F05000D0B9206C40F496
:10043000007020642068C06800F4406068B9607E85
:1004400058B9206C20F480702064206C00F4805037
:1004500018B9206C40F001002064204600F074FCC4
:1004600003E0A06B016B2846884770BD70B5054658
:100470006C6A206C40F040002064606C40F0040026
:100480006064204600F062FC70BD70B50446656A89
:10049000284600F05AFC70BDDFED081AC0ED041AC2
:1004A000DFED061AC0ED031A80ED051AC0ED020A51
:1004B00080ED010A01600276704700000000000034
:1004C00070B5044600252068806800F0030001280C
:1004D00006D12068006800F0010008B1012000E0AA
:1004E000002000283BD02068806800F00D00012823
:1004F00000D100E0002050B100BF2068806840F0CB
:1005000002002168886003202168086009E0206CEF
:1005100040F010002064606C40F001006064012035
:1005200070BD01F049FC054613E001F045FC401B9D
:1005300002280ED92068806800F0010048B1206CC4
:1005400040F010002064606C40F001006064012005
:10055000E6E72068806800F001000028E5D100206F
:10056000DEE7000070B5044600252068806800F0D2
:100570000300012806D12068006800F0010008B1DE
:10058000012000E0002080BB206880681B490840F3
:1005900008B9012000E0002048B9206C40F01000AC
:1005A0002064606C40F001006064012070BD206830
:1005B000806840F001002168886001F0FDFB05467D
:1005C00014E001F0F9FB401B02280FD920680068F5
:1005D00000F0010050B9206C40F010002064606C05
:1005E00040F0010060640120E0E705E02068006859
:1005F00000F001000028E4D00020D7E73F00008091
:1006000000BFFEE710B5024800F0D1FE10BD0000AB
:100610008401002010B5024800F0C9FE10BD0000A2
:100620008401002000B595B00020109001201190A9
:10063000002012904FF4BC600B904FF4B8600C9007
:1006400000200D900E900F90012013900BA91748D9
:1006500000F027FE08B100F06AF80221134800F00C
:100660000BFE08B100F063F801200690002007900F
:1006700012900B900C900D900E9001200F90139003
:1006800001A90A4800F00DFE08B100F050F8102151
:10069000064800F0F1FD08B100F049F8034801F008
:1006A000BAF808B100F043F815B000BD840100208D
:1006B00010B5024801F03EF910BD0000FC0000201A
:1006C00010B5024801F036F910BD000040010020CD
:1006D000054A0168891A1422B1FBF2F1890001640C
:1006E00001490839C16370470800024030B590F8ED
:1006F00040500124AC40C56B6C6004686360446882
:10070000102C04D10468A2600468E16003E004686E
:10071000A1600468E26030BD704710B5102001F0A0
:1007200057FA10BD10B5202001F052FA10BD72B674
:1007300000BFFEE72DE9F04104460E46002700BF4A
:1007400094F83C00012802D10220BDE8F08101208C
:1007500084F83C0000BF2046FFF7B2FE074697BB77
:10076000012020642068806820F080402168886033
:10077000012E05D12068806840F0804021688860A3
:100780002068806840F000402168886001F014FB18
:10079000054619E001F010FB401B0A2814D9206817
:1007A000806800F00040B0F1004F0DD1206C20F0C7
:1007B000020040F01000206400BF002084F83C00DC
:1007C00000BF0120C1E70CE02068806800F0004015
:1007D000B0F1004FDED0206C20F0020040F00100AC
:1007E000206400BF002084F83C0000BF3846ACE71E
:1007F00070B594B002460B460024186800B100BFE3
:100800001068B0F1A04F02D14648009002E04FF0CE
:10081000A0400090009810B9012014B070BD00BF36
:1008200092F83C00012801D10220F6E7012082F86D
:100830003C0000BF10688068C0F38000002864D1CD
:1008400000988068C0F3800000285ED1364918689F
:1008500090B392F830005D6845EA40308D6825F429
:100860006045284388601068806800F00300012814
:1008700006D11068006800F0010008B1012000E016
:100880000020002846D10098806800F0030001286D
:1008900006D10098006800F0010008B1012000E0D6
:1008A000002088BB9D68186828438D6840F61F7635
:1008B000B543284388602DE0FFE7886820F4604056
:1008C00088601068806800F00300012806D1106875
:1008D000006800F0010008B1012000E0002098B994
:1008E0000098806800F00300012806D10098006895
:1008F00000F0010008B1012000E0002020B9886864
:1009000040F61F75A843886004E0106C40F020009A
:100910001064012400BF002082F83C0000BF204684
:100920007BE700000001005000030050F0B595B0D7
:100930000246002500200090C868012800D000E091
:1009400000BF00BF92F83C00012802D1022015B080
:10095000F0BD012082F83C0000BF10688068C0F341
:100960008000002879D14868052812D21068006BF1
:100970000E7906EB460677001F26BE40B0430F797E
:1009800007EB47077F000E68BE40304316683063B0
:1009900043E048680A2814D21068406B0E79761F2D
:1009A00006EB460677001F26BE40B0430F797F1F37
:1009B00007EB47077F000E68BE4030431668706340
:1009C0002BE048680F2814D21068806B0E790A3E1D
:1009D00006EB460677001F26BE40B0430F790A3F5C
:1009E00007EB47077F000E68BE4030431668B063D0
:1009F00013E01068C06B0E790F3E06EB46067700D9
:100A00001F26BE40B0430F790F3F07EB47077F001B
:100A10000E68BE4030431668F0631068806800F0CE
:100A20000C0008B1012000E00020002870D1086807
:100A30000A2813D3106880690E780A3E06EB460731
:100A40000726BE40B0430F780A3F07EB47078E6882
:100A5000BE4030431668B06110E05FE11068406945
:100A60000E7806EB46070726BE40B0430F7807EB2B
:100A700047078E68BE403043166870614869166843
:100A8000F668C6F3C106760000FA06F40869012884
:100A900006D0022812D003281ED0042839D129E01C
:100AA0001068006EA34E30400E784FF0004747EAC2
:100AB0008666264330431668306663E01068406EF1
:100AC0009C4E30400E784FF0004747EA866626433A
:100AD00030431668706655E01068806E954E304061
:100AE0000E784FF0004747EA866626433043166883
:100AF000B06647E01068C06E8E4E30400E784FF002
:100B0000004747EA8666264330431668F06639E0B8
:100B100039E01068006E00F0F8400E78B0EB866F98
:100B200005D11068006E20F000401668306610682D
:100B3000406E00F0F8400E78B0EB866F05D110687B
:100B4000406E20F00040166870661068806E00F0FD
:100B5000F8400E78B0EB866F05D11068806E20F0FB
:100B600000401668B0661068C06E00F0F8400E785D
:100B7000B0EB866F05D11068C06E20F0004016689B
:100B8000F06600BF00BF1068806800F00300012815
:100B900006D11068006800F0010008B1012000E0F3
:100BA000002000287ED1C86801280AD01068D0F83B
:100BB000B0000F780126BE40B0431668C6F8B000FA
:100BC00032E01068D0F8B0000F780126BE40304304
:100BD0001668C6F8B00008680A2813D3106886693A
:100BE0000878093800EB40070720B84026EA0000E3
:100BF0000E78093E06EB46068F68B7403843166804
:100C0000B06111E0106840690E78761C06EB46076B
:100C10000726BE40B0430F787F1C07EB47078E685E
:100C2000BE40304316687061434B0868102803D1FA
:100C3000986800F4000070B10868112803D1986822
:100C400000F0807038B1086812286CD1986800F400
:100C50008000002867D11068B0F1A04F02D137485A
:100C6000019002E04FF0A04001901068806800F011
:100C70000300012806D11068006800F0010008B1E7
:100C8000012000E0002070BB019880B101988068CD
:100C900000F00300012808D10198006800F001006D
:100CA00018B100E033E0012000E00020D8B9086866
:100CB000102819D11068B0F1A04F15D1986840F4F0
:100CC000000098601E4800681E4EB0FBF6F000EB76
:100CD00080004000009002E00098401E00900098C4
:100CE0000028F9D11FE013E00868112808D1106826
:100CF000B0F1A04F04D1986840F08070986012E085
:100D0000086812280FD1986840F4800098600AE0C3
:100D1000106C40F020001064012504E0106C40F0DD
:100D200020001064012500BF002082F83C0000BFB5
:100D300028460CE600F0FF8300030050000100503D
:100D40001800002040420F007047704770470000B5
:100D5000F0B595B00446002600250020009014B997
:100D6000012015B0F0BD206918B12020005D00B150
:100D700000BF206C00F01000002853D1206C98BBFD
:100D8000002060640021E164A06484F83C002046F7
:100D900000F008F92068806800F0805020BB2046F1
:100DA000FFF78EFB0646206C00F01000E0B9DEB9BC
:100DB000206C20F4885040F0020020642068806895
:100DC00020F04050216888602068806840F08050A2
:100DD000216888606E4800686E49B0FBF1F000EB56
:100DE00080004000009003E005E00098401E009065
:100DF00000980028F9D12068806800F0805030B158
:100E00002068806800F00050B0F1005F0AD1206CCB
:100E100020F0020040F010002064606C40F00100FF
:100E200060640126206C00F01000002873D1002EB1
:100E3000FCD120688068C0F380000028F6D1206CC7
:100E400020F4807040F002002064534F2068B0F11D
:100E5000A04F02D15148019002E04FF0A040019014
:100E60002068806800F00300012806D1206800682F
:100E700000F0010008B1012000E00020B0B90198A5
:100E800070B10198806800F00300012806D1019834
:100E9000006800F0010008B1012000E0002028B93E
:100EA000B86820F4403061680843B860606B01287E
:100EB00002D04FF4805100E00021607E41EA4030D2
:100EC000E1680843A168084305432020005D01282C
:100ED00013D1607E38B9A08C401E4FF4803141EAB6
:100EE0004040054309E0206C20F0020040F0200063
:100EF0002064606C40F001006064A06A012803D0A7
:100F0000D4E90A01084305432068806800F00C001A
:100F100010B1012001E032E0002068B92068C0680B
:100F200044F2020188432168C860207E810394F85E
:100F3000300041EA400005432068C0681849084075
:100F400028432168C8602069012809D12068006B06
:100F500020F00F00E169491E08432168086305E09D
:100F60002068006B20F00F00216808630020606497
:100F7000206C20F0020040F00100206406E0206CAC
:100F800020F0020040F01000206401263046E8E620
:100F90001800002040420F000003005000010050E4
:100FA00007C0F0FF10B586B00446142101A8FFF772
:100FB000D2F92068B0F1A04F4BD14F480068401CD7
:100FC0004D4908600846006801280DD100BF4B4814
:100FD000406940F08050494948610846406900F046
:100FE0008050009000BF00BF00BF4448406940F4FB
:100FF0000030424948610846406900F400300090E2
:1010000000BF00BF01200190032002900020039048
:1010100001A94FF0904000F0E9FD394839490860D6
:10102000002048600021374881608021C16049006C
:10103000016189004161202181610021C16100F0CD
:10104000ECFC08B1FFF773FB00BF2E48A0634462BD
:1010500050E02D49206888424CD127480068401C48
:10106000254908600846006801280DD100BF2348C3
:10107000406940F08050214948610846406900F0CD
:101080008050009000BF00BF00BF1C48406940F482
:1010900000301A4948610846406900F40030009069
:1010A00000BF00BF10200190032002900020039099
:1010B00001A94FF0904000F099FD114814301349F8
:1010C0000860002048600021104881608021C160D4
:1010D0004900016189004161202181610021C161D4
:1010E00000F09BFC08B1FFF722FB00BF0748A0639C
:1010F000446200BF06B010BD08000020001002408E
:1011000008000240FC0000200001005040010020C7
:101110002DE9F04104460D461646002720688068F8
:10112000C0F3800000287DD100BF94F83C00012866
:1011300002D10220BDE8F081012084F83C0000BF0C
:101140004848006800F01F0000286CD12046FFF7D7
:1011500009FA0746002F76D1206C40F601618843DA
:1011600040F4807020643F48006800F01F0018B110
:101170002068B0F1A04F0FD1206C20F480102064C3
:101180002068C06800F0007000B3206C20F40050AC
:1011900040F48050206419E0206C40F480102064FA
:1011A0002068B0F1A04F03D02F492068884205D1B4
:1011B0004FF0A040C06800F0007000E0002028B1AF
:1011C000206C20F4005040F480502064206C00F427
:1011D0008050B0F5805F04D1606C20F00600606440
:1011E00001E00020606400BF002084F83C0000BFE4
:1011F0001E48A16B88621E48A16BC8621D48A16B86
:1012000008631C20216808602068406840F01000D6
:10121000216848602068C06840F001002168C8600B
:10122000226802E01AE013E00DE002F140013346CB
:101230002A46A06B00F01CFC2068806840F0040087
:10124000216888600BE000BF002084F83C0006E0C5
:10125000012700BF002084F83C0000E00227384648
:1012600068E7000008030050000100501F04000858
:101270008B0400086D04000810B5024692F8203077
:10128000012B01D0022B06D1106840690843146875
:101290006061002010BD506A40F48020506201203F
:1012A000F8E7F0B504460A46216894F82050012D6D
:1012B00001D0022D74D1D1F8000240F00100C1F834
:1012C0000002107D00F01F06012000FA06F3D1F89D
:1012D0001C029843C1F81C02D069C8B9D1F80C02AD
:1012E0009843C1F80C02908880B2968940EA06467D
:1012F00001F51070576940F83760108880B2168980
:1013000040EA064601F51070576900EBC7004660D9
:10131000D069012819D1D1F80C021843C1F80C0288
:10132000908880B2168840EA064601F51070576929
:1013300040F83760908980B2168940EA064601F588
:101340001070576900EBC7004660906928B9D1F862
:1013500004029843C1F8040204E0D1F804021843DF
:10136000C1F80402106928B9D1F814029843C1F8F1
:10137000140204E0D1F814021843C1F81402106AF0
:10138000012804D1D1F81C021843C1F81C02D1F87D
:10139000000220F00100C1F800020020F0BDFFE7CC
:1013A000606A40F4802060620120F7E770472DE911
:1013B000F05F04460025206846692068D0F8049054
:1013C000206887682068D0F80CA02068D0F810B09A
:1013D0002068D0F8188006F00100002855D007F0EA
:1013E0000100C0B101202168886007F0020018B137
:1013F000204600F040FA0EE007F0040010B145F47A
:10140000006508E007F0080010B145F4805502E0DF
:10141000204600F02FFA07F48070C8B14FF48070B6
:101420002168886007F4007018B1204600F025FAA2
:101430000EE007F4806010B145F4005508E007F4B1
:10144000006010B145F4804502E0204600F014FA37
:1014500007F48030C8B14FF480302168886007F409
:10146000003018B1204600F00AFA0EE007F48020A0
:1014700010B145F4004508E007F4002010B145F430
:10148000803502E0204600F0F9F906F0080038B196
:101490000AF0100020B145F4007510202168C860E2
:1014A00006F0040040B10AF0080028B108202168C5
:1014B000C860204600F0AAF906F0020038B12068A2
:1014C000C06800F0030010B1204600F0A0F906F05B
:1014D000400038B10BF0100020B145F480651020B9
:1014E0002168086106F0200040B10BF0080028B127
:1014F000082021680861204600F08AF906F01000F3
:1015000038B12068006900F0030010B1204600F0F7
:1015100080F906F4003040B109F0100028B1102025
:1015200021684860204600F075F906F4803040B12B
:1015300009F0080028B1082021684860204600F022
:101540009FF906F4004088B309F0040078B306F46C
:10155000807020B108F0010008B145F0010506F4E3
:10156000007020B108F0020008B145F0020506F451
:10157000806020B108F0040008B145F0040506F4CD
:101580000060A0B108F0700088B108F07000402839
:1015900017D006DC10280BD020280CD0302819D109
:1015A0000CE0502810D0602814D110E01DE019E0A4
:1015B00045F008050FE045F010050CE045F020056A
:1015C00009E045F0400506E045F0800503E045F4FC
:1015D000807500E000BF00BF2068806920F07000C7
:1015E000216888610420216848602DB1606A284321
:1015F00060622046FFF7DAFEBDE8F09F70B5044652
:101600000CB9012070BD94F8200010B9204600F0FC
:10161000AFF82068006840F001002168086000F021
:10162000CBFB05460DE000F0C7FB401B0A2808D99C
:10163000606A40F400306062052084F820000120D8
:10164000E0E72068406800F001000028EBD0206847
:10165000006820F002002168086000F0ADFB05463C
:101660000DE000F0A9FB401B0A2808D9606A40F48D
:1016700000306062052084F820000120C2E7206865
:10168000406800F002000028EBD1207E012806D13E
:101690002068006840F080002168086005E020684C
:1016A000006820F0800021680860607E012806D173
:1016B0002068006840F040002168086005E020686C
:1016C000006820F0400021680860A07E012806D153
:1016D0002068006840F020002168086005E020686C
:1016E000006820F0200021680860E07E012806D113
:1016F0002068006820F010002168086005E020687C
:10170000006840F0100021680860207F012806D1A1
:101710002068006840F008002168086005E0206843
:10172000006820F0080021680860607F012806D169
:101730002068006840F004002168086005E0206827
:10174000006820F0040021680860D4E90201084321
:1017500021690843616908436168491E084321689B
:10176000C86100206062012084F82000002049E761
:1017700010B586B00446142101A8FEF7ECFD2049FF
:101780002068884239D100BF1E48C06940F000700F
:101790001C49C8610846C06900F00070009000BF95
:1017A00000BF00BF0846406940F4802048610846F9
:1017B000406900F48020009000BF00BF4FF44070EB
:1017C0000190022002900020039003200490092041
:1017D000059001A90C4800F009FA002211461420D6
:1017E00000F066FB142000F053FB00221146152088
:1017F00000F05EFB152000F04BFB06B010BD0000B2
:101800000064004000100240000400487047704728
:1018100070477047704770B5044694F8200001285F
:1018200022D1022084F820002068006820F0010006
:101830002168086000F0C0FA05460DE000F0BCFA2F
:10184000401B0A2808D9606A40F400306062052015
:1018500084F82000012070BD2068406800F001007D
:101860000028EBD16062F6E7606A40F40020606215
:101870000120F0E770477047704770477047704726
:101880007047014609B90120704791F821000228EC
:1018900008D00420886300BF002081F8200000BF2A
:1018A0000120F1E70868006820F00E000A68106067
:1018B0000868006820F001000A68106091F8402074
:1018C00001209040CA6B5060012081F8210000BFC8
:1018D000002081F8200000BF00BFD5E770B50446A6
:1018E000002594F82100022803D00420A0630125DC
:1018F0001EE02068006820F00E0021680860206863
:10190000006820F001002168086094F84010012070
:101910008840E16B4860012084F8210000BF00206E
:1019200084F8200000BF606B10B12046616B8847CF
:10193000284670BD70B50446E06B056820680668EF
:1019400094F84010042088402840D0B106F00400EC
:10195000B8B12068006800F0200028B9206800684D
:1019600020F004002168086094F8401004208840AA
:10197000E16B4860E06A00284ED02046E16A884763
:101980004AE094F8401002208840284008B306F04E
:101990000200F0B12068006800F0200040B9206823
:1019A000006820F00A0021680860012084F8210006
:1019B00094F8401002208840E16B486000BF00208E
:1019C00084F8200000BFA06A30B32046A16A88478F
:1019D00022E094F84010082088402840E0B106F04A
:1019E0000800C8B12068006820F00E002168086077
:1019F00094F8401001208840E16B48600120A0630A
:101A000084F8210000BF002084F8200000BF206B74
:101A100010B12046216B884770BD70B50446002583
:101A20000CB9012070BD022084F8210020680568EF
:101A300043F6F0708543D4E901010843E1680843A7
:101A40002169084361690843A1690843E1690843C2
:101A50000543206805602046FEF73AFE0020A0639B
:101A6000012084F82100002084F8200000BFD9E77D
:101A70002DE9F04104460D4616461F464FF000087A
:101A800000BF94F82000012802D10220BDE8F081B7
:101A9000012084F8200000BF94F8210001282CD1F7
:101AA000022084F821000020A0632068006820F054
:101AB0000100216808603B46324629462046FEF771
:101AC00015FEE06A30B12068006840F00E00216821
:101AD00008600BE02068006840F00A002168086098
:101AE0002068006820F00400216808602068006811
:101AF00040F001002168086006E000BF002084F883
:101B0000200000BF4FF002084046BFE770B5044612
:101B100000F052F906462546681C10B104480078CA
:101B2000054400BF00F048F9801BA842FAD370BDFD
:101B300014000020F8B50446202C26D10020009087
:101B40001C4890ED040ABDEEC00A10EE106A1A4857
:101B500090ED040ABDEEC00A10EE105A1748007846
:101B600020B9012015490870009603E000201349B0
:101B70000870009501221146114800F017F904225F
:101B80006946104802F04AF813E0102C11D10E48B3
:101B9000007838B901200C49087000210B4801F089
:101BA000CDFC06E00020084908700021074801F03C
:101BB0005BFDF8BD24000020400000201C00002038
:101BC00000040048440200201D000020F80100200D
:101BD00010B5044604480068204020B10248046063
:101BE0002046FFF7A7FF10BD1404014078B5034657
:101BF0000A460021C0E001268E40156805EA060469
:101C0000002C73D0157905F00305012D04D015794A
:101C100005F00305022D13D198684E000325B54049
:101C2000A8434E00D568B540284398605868012500
:101C30008D40A8431579C5F300158D4028435860A1
:101C4000157905F00305032D09D0D8684E0003254A
:101C5000B540A8434E009568B5402843D860157933
:101C600005F00305022D13D1CE0803F1200555F828
:101C700026004D07EE0E0F25B540A8434E07F60E81
:101C80001569B5402843CE0803F1200545F8260024
:101C900018684E000325B540A843157905F00305E3
:101CA0004E00B54028431860556805F44035002DB6
:101CB00061D000BF334DAD6945F00105314EB561CE
:101CC0003546AD6905F00105009500BF00BF4FEA3C
:101CD000B6358E0855F826008D072E0F0F25B54016
:101CE000A843B3F1904F02D1002510E043E0264D08
:101CF000AB4201D101250AE0244DAB4201D10225BE
:101D000005E0234DAB4201D1032500E005258E07F8
:101D1000360FB54028431F4D8E0845F826001E4D4E
:101D20002868A043556805F4801505B120431A4D75
:101D300028602D1D2868A043556805F4001505B1DD
:101D40002043154D2D1D2860134D2D1F2868A043DD
:101D5000556805F4003505B120430F4D2D1F28604F
:101D60002D1F2868A043556805F4803505B1204330
:101D7000094D083D2860491C1568CD40002D7FF4B1
:101D80003AAF78BD00100240000400480008004847
:101D9000000C004808000140080401400246136995
:101DA0000B400BB1012000E0002070470AB18161B7
:101DB00000E0816270470000014800687047000041
:101DC0000C000020034800680349097808440149D1
:101DD000086070470C0000201400002010B508486F
:101DE000006840F0100006490860032000F09EF8EB
:101DF0000F2000F007F800F02BF8002010BD0000C5
:101E00000020024070B504460E4800784FF47A7105
:101E1000B1FBF0F00C490968B1FBF0F5284601F080
:101E20007BF808B1012070BD102C07D2002221469A
:101E3000501E00F03DF80548046001E00120F2E783
:101E40000020F0E7140000201800002010000020FF
:101E500008B500BF0D48806940F001000B4988615A
:101E60000846806900F00100009000BF00BF00BF7D
:101E70000846C06940F08050C8610846C06900F05B
:101E80008050009000BF00BF08BD0000001002405D
:101E900001460846002809DB00F01F0301229A4092
:101EA00043099B0003F1E023C3F8002100BF704702
:101EB0002DE9F05F80460D461646002703F072F8C4
:101EC000074639462A46334601F00700C0F1070AA3
:101ED000BAF1040F02D94FF0040A01E0C0F1070A79
:101EE000D14600F1040ABAF1070F02D24FF0000AFE
:101EF00001E0A0F1030AD4464FF0010A0AFA09FAF8
:101F0000AAF1010A0AEA020A0AFA0CFA4FF0010BD6
:101F10000BFA0CFBABF1010B0BEA030B4AEA0B04C7
:101F20002146404603F046F8BDE8F09F00BF00F0B0
:101F30000702064B19684FF6FF031940044B0B4389
:101F400043EA0221014B196000BF70470CED00E02D
:101F50000000FA05F8B50446002600250027206891
:101F600000F48030B0F5803F73D17A48C06900F04A
:101F7000805070B900BF7748C06940F08050754903
:101F8000C8610846C06900F08050009000BF00BFE3
:101F900001277148006800F48070B0B96E4800688D
:101FA00040F480706C490860FFF706FF064606E0C3
:101FB000FFF702FF801B642801D90320F8BD6648A3
:101FC000006800F480700028F2D06248006A00F4D3
:101FD0004075002D6BD0A08800F44070A84266D0F8
:101FE0005C48006A20F440750121080490FAA0F0D2
:101FF000B0FA80F0594A02EB8000C0F800140020CB
:10200000090491FAA1F1B1FA81F102EB8101C1F861
:1020100000045048056205F00100B8B3FFF7CCFE9C
:10202000064608E0FFF7C8FE801B41F2883188426F
:1020300001D90320C2E74020022191FAA1F1B1FAAF
:1020400081F108430121B1EB601F03D141480068D1
:102050001FE03BE04020022191FAA1F1B1FA81F1A9
:1020600008430221B1EB601F02D13A48006A10E038
:102070004020022191FAA1F1B1FA81F10843042133
:10208000B1EB601F03D13348406802E00FE03148F4
:10209000406A4021022292FAA2F2B2FA82F211437D
:1020A00001F01F020121914008400028BAD02948C0
:1020B000006A20F440706168084326490862012FD5
:1020C00004D10846C06920F08050C861207800F033
:1020D000010038B11F48006B20F00300A1680843DD
:1020E0001C490863207800F02000202807D11948F7
:1020F000006B20F01000E16808431649086320785F
:1021000000F08000802807D11248C06A20F4F870DF
:10211000216908430F49C862208800F48050B0F557
:10212000805F07D10B48006B20F480706169084321
:1021300008490863208800F48040B0F5804F07D13B
:102140000448006B20F48050A169084301490863EA
:10215000002033E7001002400070004000004242BF
:1021600070B504460D4600260CB9012070BDA2488A
:10217000006800F00700A8420ED29F48006820F0D7
:10218000070028439C4908600846006800F00700E3
:10219000A84201D00120E9E7207800F002000228DF
:1021A00007D19648406820F0F000A16808439349A1
:1021B0004860207800F0010000287CD06068012889
:1021C0003BD12020010391FAA1F1B1FA81F108433A
:1021D0000121B1EB601F02D1884800681DE020207A
:1021E000010391FAA1F1B1FA81F108430221B1EBA7
:1021F000601F02D18148006A0FE02020010391FA9C
:10220000A1F1B1FA81F108430421B1EB601F02D1C1
:102210007A48406801E07948406A20210A0392FA2E
:10222000A2F2B2FA82F2114301F01F0201219140A1
:10223000084000287CD1012098E7606802283BD143
:102240002020010591FAA1F1B1FA81F108430121A1
:10225000B1EB601F02D1694800681DE02020010534
:1022600091FAA1F1B1FA81F108430221B1EB601FAB
:1022700002D16248006A0FE02020010591FAA1F125
:10228000B1FA81F108430421B1EB601F02D15B4830
:10229000406801E05948406A20210A0592FAA2F2FA
:1022A000B2FA82F2114301F01F020121914008406D
:1022B000E8BB01205AE758E02020022191FAA1F161
:1022C000B1FA81F108430121B1EB601F02D14B4803
:1022D00000681DE02020022191FAA1F1B1FA81F1FC
:1022E00008430221B1EB601F02D14448006A0FE0AD
:1022F0002020022191FAA1F1B1FA81F108430421D1
:10230000B1EB601F02D13D48406801E03B48406AA4
:102310002021022292FAA2F2B2FA82F2114301F0D3
:102320001F0201219140084008B901201EE7FFE784
:102330003248406820F00300616808432F49486034
:10234000FFF73AFD064608E0FFF736FD801B41F235
:102350008831884201D9032008E72848406800F006
:102360000C006168B0EB810FEED12348006800F0EB
:102370000700A8420ED92048006820F00700284333
:102380001D4908600846006800F00700A84201D017
:102390000120EBE6207800F00400042807D117485C
:1023A000406820F4E060E168084314494860207800
:1023B00000F00800082808D11048406820F4605058
:1023C000216940EAC1000D49486000F051F80B490D
:1023D000496801F0F001F02292FAA2F2B2FA82F218
:1023E000D140074A515CC840064908600648006869
:1023F000FFF708FD0020B9E600200240001002406F
:1024000082520008180000201000002001480068D7
:10241000704700001800002000B5FFF7F7FF0749DC
:10242000496801F4E0614FF4E06292FAA2F2B2FA74
:1024300082F2D140024A515CC84000BD0010024007
:102440009252000800B5FFF7E1FF0749496801F41F
:1024500060514FF4605292FAA2F2B2FA82F2D14085
:10246000024A515CC84000BD001002409252000870
:102470002DE9F0410024002500270026A046184839
:10248000446804F00C0018B3042802D008281ED1B8
:1024900002E0DFF850801EE01348C4F38341465C3D
:1024A0000F48C06A00F00F0010490D5C04F4803042
:1024B00040B12A4600230B481946FDF7D5FEA0FB84
:1024C000067102E00A48A0FB0671B84603E000BFAF
:1024D000DFF8108000BF00BF4046BDE8F08100007B
:1024E0000010024000127A00625200087252000886
:1024F00000093D00F8B504460CB90120F8BD20786C
:1025000000F0010000287BD0FA48406800F00C0081
:1025100004280CD0F748406800F00C00082845D18A
:10252000F448406800F48030B0F5803F3ED1202070
:10253000010391FAA1F1B1FA81F108430121B1EB54
:10254000601F02D1EB4800681DE02020010391FAD2
:10255000A1F1B1FA81F108430221B1EB601F02D170
:10256000E448006A0FE02020010391FAA1F1B1FADA
:1025700081F108430421B1EB601F02D1DD484068BE
:1025800001E0DC48406A20210A0392FAA2F2B2FA82
:1025900082F2114301F01F020121914008400028FE
:1025A000B1D0606800282BD10120A7E700BF606888
:1025B000B0F5803F06D1CF48006840F48030CD4967
:1025C000086029E0606858B9CA48006820F4803083
:1025D000C84908600846006820F4802008601BE0B5
:1025E0006068B0F5A02F0CD1C248006840F480208C
:1025F000C04908600846006840F4803008600BE07D
:10260000A1E0BC48006820F48030BA490860084660
:10261000006820F48020086000BFB648C06A20F03F
:102620000F00A1680843B349C8626068A0B3FFF710
:10263000C3FB054606E0FFF7BFFB401B642801D93A
:1026400003205BE72020010391FAA1F1B1FA81F1A7
:1026500008430121B1EB601F02D1A64800681EE0CB
:102660002020010391FAA1F1B1FA81F1084302217E
:10267000B1EB601F02D19F48006A10E020200103E7
:1026800091FAA1F1B1FA81F108430421B1EB601F85
:1026900003D19848406802E010E09648406A202143
:1026A0000A0392FAA2F2B2FA82F2114301F01F0277
:1026B0000121914008400028BDD044E0FFF77CFB99
:1026C000054606E0FFF778FB401B642801D903208C
:1026D00014E72020010391FAA1F1B1FA81F1084336
:1026E0000121B1EB601F02D1824800681DE020206B
:1026F000010391FAA1F1B1FA81F108430221B1EB92
:10270000601F02D17B48006A0FE02020010391FA8C
:10271000A1F1B1FA81F108430421B1EB601F02D1AC
:102720007448406801E07348406A20210A0392FA25
:10273000A2F2B2FA82F2114301F01F02012191408C
:1027400008400028BED1207800F0020002285CD1A9
:102750006848406800F00C0050B16648406800F0DE
:102760000C00082852D16348406800F48030E8BB70
:102770002020022191FAA1F1B1FA81F1084301214F
:10278000B1EB601F02D15B4800681DE020200221F0
:1027900091FAA1F1B1FA81F108430221B1EB601F76
:1027A00002D15448006A0FE02020022191FAA1F1E1
:1027B000B1FA81F108430421B1EB601F02D14D4809
:1027C000406801E04B48406A2021022292FAA2F2BE
:1027D000B2FA82F2114301F01F0201219140084038
:1027E00028B12069012802D0012087E60EE0414887
:1027F000006820F0F800F82292FAA2F2B2FA82F20F
:102800006169914008433B490860B1E0206970B3B9
:10281000012191FAA1F0B0FA80F0374A42F8201075
:10282000FFF7CAFA054606E0FFF7C6FA401B022882
:1028300001D9032062E62020022191FAA1F1B1FA28
:1028400081F108430121B1EB601F02D129480068E2
:102850001EE02020022191FAA1F1B1FA81F1084392
:102860000221B1EB601F03D12248006A10E02CE086
:102870002020022191FAA1F1B1FA81F1084304214B
:10288000B1EB601F02D11B48406801E01948406A63
:102890002021022292FAA2F2B2FA82F2114301F04E
:1028A0001F020121914008400028BDD01148006856
:1028B00020F0F800F82292FAA2F2B2FA82F26169EC
:1028C000914008430B49086052E00020012191FA31
:1028D000A1F1B1FA81F1084A42F82100FFF76CFA40
:1028E00005460BE0FFF768FA401B022806D90320D3
:1028F00004E60000001002400000424220200221B5
:1029000091FAA1F1B1FA81F108430121B1EB601F05
:1029100002D1FB4800681DE02020022191FAA1F1BC
:10292000B1FA81F108430221B1EB601F02D1F448F2
:10293000006A0FE02020022191FAA1F1B1FA81F1A1
:1029400008430421B1EB601F02D1ED48406801E06B
:10295000EB48406A2021022292FAA2F2B2FA82F2F5
:10296000114301F01F020121914008400028B9D114
:10297000207800F00800082851D1A06980B3012117
:1029800091FAA1F0B0FA80F0DE4A02EB8000C0F8C4
:102990008014FFF711FA054606E0FFF70DFA401B19
:1029A000022801D90320A9E56020022191FAA1F1B2
:1029B000B1FA81F108430121B1EB601F02D1D04887
:1029C00000681EE06020022191FAA1F1B1FA81F1C4
:1029D00008430221B1EB601F03D1C948006A10E02F
:1029E0001EE06020022191FAA1F1B1FA81F10843C1
:1029F0000421B1EB601F02D1C148406801E0C0482A
:102A0000406A6021022292FAA2F2B2FA82F21143E3
:102A100001F01F020121914008400028BDD04FE085
:102A20000020012191FAA1F1B1FA81F1B54A02EB3E
:102A30008101C1F88004FFF7BFF9054606E0FFF702
:102A4000BBF9401B022801D9032057E56020022171
:102A500091FAA1F1B1FA81F108430121B1EB601FB4
:102A600002D1A74800681DE06020022191FAA1F17F
:102A7000B1FA81F108430221B1EB601F02D1A048F5
:102A8000006A0FE06020022191FAA1F1B1FA81F110
:102A900008430421B1EB601F02D19948406801E06E
:102AA0009748406A6021022292FAA2F2B2FA82F2B8
:102AB000114301F01F020121914008400028BED1BE
:102AC000207800F00400042873D100278C48C069E6
:102AD00000F0805070B900BF8948C06940F0805054
:102AE0008749C8610846C06900F08050009000BF67
:102AF00000BF01278448006800F48070B0B98248A4
:102B0000006840F4807080490860FFF755F9054679
:102B100006E0FFF751F9401B642801D90320EDE4DA
:102B20007948006800F480700028F2D000BFE068A7
:102B3000012806D17248006A40F00100704908621D
:102B400027E0E06858B96E48006A20F001006C493F
:102B500008620846006A20F00400086219E0E06894
:102B600005280BD16648006A40F0040064490862F9
:102B70000846006A40F0010008620AE06048006A06
:102B800020F001005E4908620846006A20F0040057
:102B9000086200BFE068B8B3FFF70EF9054609E028
:102BA000FFF70AF9401B41F28831884202D903201D
:102BB000A4E48BE04020022191FAA1F1B1FA81F165
:102BC00008430121B1EB601F02D14D4800681EE0AF
:102BD0004020022191FAA1F1B1FA81F108430221CA
:102BE000B1EB601F02D14648006A10E0402002218C
:102BF00091FAA1F1B1FA81F108430421B1EB601F10
:102C000003D13F48406802E010E03D48406A40215F
:102C1000022292FAA2F2B2FA82F2114301F01F02EA
:102C20000121914008400028BAD046E0FFF7C4F8DF
:102C3000054608E0FFF7C0F8401B41F288318842A2
:102C400001D903205AE44020022191FAA1F1B1FAFE
:102C500081F108430121B1EB601F02D128480068CF
:102C60001DE04020022191FAA1F1B1FA81F108435F
:102C70000221B1EB601F02D12148006A0FE0402021
:102C8000022191FAA1F1B1FA81F108430421B1EBDB
:102C9000601F02D11A48406801E01948406A40218B
:102CA000022292FAA2F2B2FA82F2114301F01F025A
:102CB0000121914008400028BCD1012F05D11048C6
:102CC000C06920F080500E49C86100BFE06900284B
:102CD00074D00B48406800F00C0008286FD0E06901
:102CE00002286DD100204FF0807191FAA1F1B1FA64
:102CF00081F1044A42F82100FFF75EF805460CE036
:102D0000001002400000424200700040FFF754F8FB
:102D1000401B022801D9032047E42020010591FA35
:102D2000A1F1B1FA81F108430121B1EB601F02D199
:102D3000774800681DE02020010591FAA1F1B1FA61
:102D400081F108430221B1EB601F02D17048006A93
:102D50000FE02020010591FAA1F1B1FA81F10843B9
:102D60000421B1EB601F02D16948406801E0684866
:102D7000406A20210A0592FAA2F2B2FA82F21143C5
:102D800001F01F020121914008400028BED1D4E982
:102D9000081008435E49496821F4741108435C49EE
:102DA00048600120010691FAA1F1B1FA81F1594A76
:102DB00042F82100FFF700F8054609E0A5E092E09F
:102DC00041E0FEF7F9FF401B022801D9032038E457
:102DD0002020010591FAA1F1B1FA81F10843012106
:102DE000B1EB601F02D14A4800681DE020200105B8
:102DF00091FAA1F1B1FA81F108430221B1EB601F10
:102E000002D14348006A0FE02020010591FAA1F1A8
:102E1000B1FA81F108430421B1EB601F02D13C48B3
:102E2000406801E03A48406A20210A0592FAA2F27D
:102E3000B2FA82F2114301F01F02012191400840D1
:102E40000028BED061E000204FF0807191FAA1F11E
:102E5000B1FA81F12F4A42F82100FEF7ADFF054695
:102E600006E0FEF7A9FF401B022801D903202FE44A
:102E70002020010591FAA1F1B1FA81F10843012165
:102E8000B1EB601F02D1224800681DE0202001053F
:102E900091FAA1F1B1FA81F108430221B1EB601F6F
:102EA00002D11B48006A0FE02020010591FAA1F130
:102EB000B1FA81F108430421B1EB601F02D114483B
:102EC000406801E01248406A20210A0592FAA2F205
:102ED000B2FA82F2114301F01F0201219140084031
:102EE0000028BED111E0E069012800D17DE4084846
:102EF000466806F48031206A814204D106F47011DC
:102F0000606A814201D001206FE400206DE400007E
:102F1000001002400000424270B504462546681E7B
:102F2000B0F1807F01D301200FE0681E4FF0E02157
:102F300048610F214FF0FF3002F03CF800204FF0C5
:102F4000E021886107200861002070BD704770474C
:102F50007047000010B50346002200BF93F83C0004
:102F6000012801D1022010BD012083F83C0000BFE0
:102F700022F0FF00CC6840EA040222F440708C6822
:102F800040EA040222F480604C6840EA040222F421
:102F900000600C6840EA040222F480500C6940EAA8
:102FA000040222F400504C6940EA040222F48040FA
:102FB0008C6A40EA040222F470200C8B40EA04423E
:102FC0000D4C1868A0420ED122F470008C8C40EA9F
:102FD000045222F08070CC6940EA040222F00070B2
:102FE0000C6A40EA04021868426400BF002083F8BB
:102FF0003C0000BF00BFB6E7002C014030B50246E0
:103000000B4600BF92F83C00012801D1022030BDE0
:10301000012082F83C0000BF022082F83D001068C9
:10302000416810688468174D1068A84203D121F4E4
:1030300070015868014321F070011868014310685D
:103040004160104D1068A8420BD01068B0F1804F5D
:1030500007D00D4D1068A84203D00C4D1068A8424F
:1030600005D124F08004986804431068846001202E
:1030700082F83D0000BF002082F83C0000BF00BF86
:10308000C5E70000002C0140000400400040014062
:1030900010B504460CB9012010BD94F83D0028B9C4
:1030A000002084F83C00204600F02AF8022084F832
:1030B0003D00211D206801F001FA012084F848003C
:1030C00000BF84F83E0001213F20015540200155FA
:1030D00041200155422001554320015500BF00BF4A
:1030E000012084F844004520015546200155472021
:1030F000015500BF012084F83D000020CCE700000E
:1031000038B5044616492068884216D100BF1548D4
:10311000C06940F010001349C8610846C06900F05A
:103120001000009000BF00BF002211463620FEF7BD
:10313000BFFE3620FEF7ACFE11E00B492068884246
:103140000DD100BF0748806940F40030054988610F
:103150000846806900F40030009000BF00BF38BD11
:10316000001000400010024000440140704770B55C
:1031700004462068C5682068066906F00200022837
:1031800019D105F00200022815D1401F21680861FD
:10319000012020772068806900F0030018B12046E4
:1031A000FFF7E4FF05E0204600F0D6F8204600F0E7
:1031B000C4F90020207706F00400042819D105F096
:1031C0000400042815D1C04321680861022020773B
:1031D0002068806900F4407018B12046FFF7C6FFF0
:1031E00005E0204600F0B8F8204600F0A6F90020DF
:1031F000207706F00800082819D105F008000828F3
:1032000015D1C04321680861042020772068C06977
:1032100000F0030018B12046FFF7A8FF05E02046A4
:1032200000F09AF8204600F088F90020207706F098
:103230001000102819D105F01000102815D1C04336
:1032400021680861082020772068C06900F4407078
:1032500018B12046FFF78AFF05E0204600F07CF811
:10326000204600F06AF90020207706F0010048B1FE
:1032700005F0010030B16FF00100216808612046BF
:1032800000F05EFA06F08000802809D105F0800089
:10329000802805D1C043216808612046FFF757FE0A
:1032A00006F48070B0F5807F0AD105F08000802898
:1032B00006D16FF48070216808612046FFF746FE52
:1032C00006F04000402809D105F04000402805D113
:1032D000C04321680861204600F05AFA06F0200039
:1032E000202809D105F02000202805D1C0432168FD
:1032F00008612046FFF72CFE70BD000010B586B0B7
:103300000446142101A8FDF726F8114920688842D7
:103310001BD100BF0F48406940F400300D4948619F
:103320000846406900F40030009000BF00BF8814D8
:10333000019002200290002003900490012005904B
:1033400001A94FF09040FEF751FC06B010BD0000FF
:10335000004401400010024070472DE9F04104464E
:103360000D461646002700BF94F83C00012802D104
:103370000220BDE8F081012084F83C0000BF0C2E43
:1033800051D005DC4EB1042E1ED0082E7AD133E088
:10339000102E60D0142EF9D175E02946206801F076
:1033A000F1F82068806940F0080021688861206891
:1033B000806920F00400216888612068806929699B
:1033C00008432168886178E02946206801F026F9E1
:1033D0002068806940F40060216888612068806905
:1033E00020F480602168886120688069296940EA4A
:1033F00001202168886160E02946206801F060F9B9
:103400002068C06940F008002168C8612068C06970
:1034100020F004002168C8612068C0692969084358
:103420002168C86149E02946206801F099F92068BF
:10343000C06940F400602168C8612068C06920F458
:1034400080602168C8612068C069296940EA01205C
:103450002168C86131E02946206801F0B7F9206889
:10346000406D40F00800216848652068406D20F0FC
:103470000400216848652068406D29690843216877
:1034800048651AE017E02946206801F0D1F9206864
:10349000406D40F40060216848652068406D20F46C
:1034A0008060216848652068406D296940EA0120F4
:1034B0002168486501E0012700BF00BF00BF002070
:1034C00084F83C0000BF384653E710B504460CB9F9
:1034D000012010BD94F83D0028B9002084F83C007C
:1034E000204600F029F8022084F83D00211D2068C4
:1034F00000F0E4FF012084F8480000BF84F83E009B
:1035000001213F2001554020015541200155422015
:1035100001554320015500BF00BF012084F844003D
:1035200045200155462001554720015500BF012087
:1035300084F83D000020CCE77047704770B5044622
:103540000D4615B994F83E0015E0042D02D13F2038
:10355000005D10E0082D02D14020005D0BE00C2D35
:1035600002D14120005D06E0102D02D14220005D15
:1035700001E04320005D012801D0012070BD1DB98C
:10358000022084F83E001AE0042D03D102213F20DE
:10359000015514E0082D03D10221402001550EE011
:1035A0000C2D03D102214120015508E0102D03D13B
:1035B00002214220015502E002214320015501224F
:1035C0002946206800F0CCFF2149206888420BD0B2
:1035D00020492068884207D01F492068884203D0CC
:1035E0001E492068884201D1012000E0002028B156
:1035F0002068406C40F40040216848641449206809
:1036000088420BD02068B0F1804F07D01449206861
:10361000884203D00F492068884210D12068806812
:10362000104900EA0106062E0FD0B6F5803F0CD0F7
:103630002068006840F001002168086005E020680B
:10364000006840F0010021680860002096E7000053
:10365000002C01400040014000440140004801406E
:10366000000400400700010030B504460D4600226A
:103670002946206800F074FF2D49206888420BD04D
:103680002C492068884207D02B492068884203D003
:103690002A492068884201D1012000E0002090B131
:1036A00000BF2068006A41F21111084050B920683B
:1036B000006A8910084028B92068406C20F4004056
:1036C0002168486400BF00BF2068006A41F2111100
:1036D000084050B92068006A8910084028B920685D
:1036E000006820F001002168086000BF1DB90120BA
:1036F00084F83E001AE0042D03D101213F2001553A
:1037000014E0082D03D10121402001550EE00C2DBD
:1037100003D101214120015508E0102D03D10121E1
:103720004220015502E0012143200155002030BD17
:10373000002C01400040014000440140004801408D
:1037400010B504460F4884421AD14FF480510E48F8
:10375000FEF724FB50B900210C48FFF7EFFE0122D1
:1037600040214FF09040FEF721FB09E0002107487F
:10377000FFF77AFF002240214FF09040FEF716FB42
:1037800010BD0000AC01002000040048F80100203A
:1037900070477047704770472DE9F047044620682E
:1037A000C569206806682068876840F60F0005EA4A
:1037B0000009B9F1000F0CD105F0200048B106F066
:1037C000200030B1A06E10B12046A16E8847BDE840
:1037D000F087B9F1000F7DD007F0010018B9BF489C
:1037E00030400028F7D005F0010058B106F4807091
:1037F00040B1012021680862D4F8840040F0010043
:10380000C4F8840005F0020058B107F0010040B18F
:10381000022021680862D4F8840040F00400C4F853
:10382000840005F0040058B107F0010040B1042005
:1038300021680862D4F8840040F00200C4F88400D3
:1038400005F0080070B106F0200010B907F0010083
:1038500040B1082021680862D4F8840040F00800D4
:10386000C4F8840005F4006060B106F0806048B1DF
:103870004FF4006021680862D4F8840040F0200012
:10388000C4F88400D4F8840000284BD005F0200050
:1038900038B106F0200020B1A06E10B12046A16E14
:1038A0008847D4F884A02068806800F04000402851
:1038B00002D00AF0280070B3204601F095F9206884
:1038C000806800F04000402821D100BF00BF21687F
:1038D000083100E027E051E8001F21F04000216896
:1038E000083141E80002002AF1D100BF606F50B1F9
:1038F0007B48616F4863606FFDF7F0FF90B1606FC8
:10390000416B88470EE02046FFF745FF0AE020465E
:10391000FFF741FF06E0FFE72046FFF73CFF0020EE
:10392000C4F8840053E7206E01286ED105F0100022
:1039300000286AD006F010000028FAD01020216874
:1039400008622068806800F0400040285ED1606F07
:10395000006840681FFA80F8B8F1000F54D0B4F83E
:103960005800404550DDA4F85A80606F80692028D7
:103970003FD000BF00BF216851E8001F21F48070D4
:10398000226842E800010029F5D100BF00BF00BF56
:103990002168083151E8001F21F001002168083139
:1039A00041E80002002AF3D100BF00BF00BF216838
:1039B000083151E8001F21F040002168083141E83A
:1039C0000002002AF3D100BF2020C4F880000020AC
:1039D000206600BF00BF216851E8001F21F01000E1
:1039E000226842E800010029F5D100BF606FFDF7B1
:1039F00048FF02206066B4F85800B4F85A20801AD4
:103A000081B22046FFF7C5FEE1E641E034F8580FE9
:103A10006188401A1FFA80F86088583CB8B3B8F142
:103A2000000F34D000BF00BF216851E8001F21F40F
:103A30009070226842E800010029F5D100BF00BF64
:103A400000BF2168083151E8001F21F00100216802
:103A5000083141E80002002AF3D100BF2020C4F859
:103A6000800000202066A06600BF00BF216851E8EA
:103A7000001F21F01000226842E800010029F5D162
:103A800000BF0220606641462046FFF782FE9EE6A8
:103A900005F4801050B107F4800038B14FF4801065
:103AA000216808622046FFF775FE90E605F0800069
:103AB00040B106F0800028B1E06E10B12046E16E02
:103AC000884784E605F0400030B106F0400018B1A8
:103AD000204601F0BCF87AE600BF78E62001000439
:103AE000D14B000810B504460CB9012010BDA069E7
:103AF00000B100E000BFE06F28B9002084F8780032
:103B0000204600F029F82420E0672068006820F0B3
:103B1000010021680860606A10B1204600F069FF6A
:103B2000204601F0ABF8012800D1DFE720684068AB
:103B300020F49040216848602068806820F02A00C6
:103B4000216888602068006840F0010021680860F2
:103B5000204600F0CAFFC9E710B586B0044614211C
:103B600001A8FCF7F8FB2A49206888424DD100BF24
:103B70002848C06940F400302649C8610846C06939
:103B800000F40030009000BF00BF00BF084640694D
:103B900040F4003048610846406900F4003000906D
:103BA00000BF00BF00BF0846406940F48020486164
:103BB0000846406900F48020009000BF00BF4FF429
:103BC0000040019002200290002003900320049006
:103BD0000720059001A94FF09040FEF707F8082054
:103BE00001900220029000200390032004900720FF
:103BF000059001A90848FDF7F9FF0022114626208B
:103C0000FEF756F92620FEF743F906B010BD000076
:103C100000440040001002400004004830B5034654
:103C2000D86F202827D101B10AB9012030BD43F84F
:103C30004C1F9A80DA800020186298632120186354
:103C40004C3B9868B0F5805F04D1186910B90B48F7
:103C5000D86601E00A48D86600BF00BF1C6854E877
:103C6000004F44F080001D6845E80004002CF5D1A9
:103C700000BF0020DAE70220D8E70000294E000844
:103C8000894E000810B504460448844204D100223D
:103C900001210348FEF78AF810BD0000440200200D
:103CA0000004004800BFFEE710B500210948FCF7FA
:103CB00041FD00210848FCF73DFD0122074801882D
:103CC0000448FDF725FA0122054801880248FDF75E
:103CD0001FFA10BD5C000020AC0000201E00002078
:103CE0002000002000B500229FED0A1ADFED0A0A2D
:103CF0009FED0A0A0A490B48FCF7CEFB00229FED14
:103D0000051ADFED050A9FED080A08490848FCF787
:103D1000C3FB00BD0AD7A33D0AD7233CCDCCA441A9
:103D20001E0000202400002066665640200000206F
:103D30004000002000B589B0002006900790089050
:103D400018216846FCF707FB4FF0A0401C490860AB
:103D50000020486000211A4881600161417680F8A6
:103D60002010C162012181620021C1600121C16175
:103D7000002180F830100421416100210176416367
:103D8000FCF7E6FF08B1FCF7D2FC0020069006A97C
:103D90000B48FCF72DFD08B1FCF7C9FC0120009091
:103DA0000190002003900290049005906946044819
:103DB000FCF7BCFD08B1FCF7BAFC09B000BD00007F
:103DC0005C00002000B587B0182101A8FCF7C3FAF9
:103DD0001848194908600020486000211648816091
:103DE0000161417680F82010C162012181620021C9
:103DF000C1600121C161002180F8301004214161BE
:103E0000002101764163FCF7A3FF08B1FCF78FFCAA
:103E100001200190029000200490039005900690EC
:103E200001A90548FCF782FD08B1FCF780FC07B04A
:103E300000BD000000010050AC00002010B510488B
:103E4000104908600420486000210E488160C1606C
:103E50004FF44031016109014161002101760121E6
:103E60004176002181760121C1760021017701216F
:103E70004177FDF7C3FB08B1FCF759FC10BD00000A
:103E8000006400408401002008B500BF0E4840696E
:103E900040F001000C4948610846406900F001000B
:103EA000009000BF00BF002211460B20FEF700F873
:103EB0000B20FDF7EDFF002211460C20FDF7F8FF67
:103EC0000C20FDF7E5FF08BD0010024000B587B0EB
:103ED000142102A8FCF73FFA00BF3948406940F4BA
:103EE0008000374948610846406900F4800001902D
:103EF00000BF00BF00BF0846406940F40030486181
:103F00000846406900F40030019000BF00BF00BFC8
:103F10000846406940F4802048610846406900F442
:103F20008020019000BF00BF0022C0214FF09040D0
:103F3000FDF73CFF002246F2C1012248FDF736FFA3
:103F4000C02002900120039000200490059002A957
:103F50004FF09040FDF74AFE46F2C100029001206A
:103F6000039000200490059002A91648FDF73EFE3C
:103F70004FF48050029000200390049002A9114851
:103F8000FDF734FE302002904FF48810039000209B
:103F9000049002A90B48FDF729FE002211460A20D1
:103FA000FDF786FF0A20FDF773FF00221146172058
:103FB000FDF77EFF1720FDF76BFF07B000BD000087
:103FC000001002400004004800B593B01C210CA86A
:103FD000FCF7C1F92C2101A8FCF7BDF922482349BF
:103FE00008604720486000212048816041F2873105
:103FF000C1600021016141618161FFF749F808B1A9
:10400000FCF795FB1948FFF760FA08B1FCF78FFB46
:1040100060200C9040F6C4100D9000200E900F9080
:1040200010901190129000220CA91048FFF795F9FA
:1040300008B1FCF77CFB00200190029003900490F3
:1040400005904FF400500690002007900B9001A9B6
:104050000648FEF77FFF08B1FCF769FB0348FFF74E
:104060004DF913B000BD000000440140F8010020EC
:104070000EB500200090019002900E480E49086095
:104080004720486000210C48816042F20F71C160F6
:1040900000218161FEF7FCFF08B1FCF748FB00201E
:1040A0000090029069460448FEF7A8FF08B1FCF7AB
:1040B0003EFB0EBD00100040AC01002010B50D48C5
:1040C0000D4908604FF4E130486000210A488160E2
:1040D000C16001610C21416100218161C161016206
:1040E0000020054948620846FFF7FCFC08B1FCF7D0
:1040F0001EFB10BD004400404402002000BFFEE74C
:1041000000BFFEE770B500240EE00021204600F05D
:10411000D4F8002504E0002000F065F9681CC5B261
:10412000802DF8DB601CC4B2082CEEDB70BD0000F3
:1041300010B5012240210448FDF738FE01228021FC
:104140000148FDF733FE10BD0004004870B5054678
:10415000002413E08020204100EA050280210E485F
:10416000FDF724FE012240210B48FDF71FFE00222F
:1041700040210948FDF71AFE601CC4B2082CE9DB97
:10418000012240210448FDF711FE0022402102488F
:10419000FDF70CFE70BD00000004004810B50122C0
:1041A00080210948FDF702FE012240210648FDF763
:1041B000FDFD002280210448FDF7F8FD002240218A
:1041C0000148FDF7F3FD10BD0004004810B50022C2
:1041D00080210748FDF7EAFD012240210448FDF750
:1041E000E5FD012280210248FDF7E0FD10BD000041
:1041F0000004004870B5002406E0002500E06D1CB6
:10420000B5F57A7FFBD3641CB4F57A7FF5D3FFF75D
:104210008FFFAE2000F0D7F8D52000F0D4F8802032
:1042200000F0D1F8A82000F0CEF83F2000F0CBF845
:10423000D32000F0C8F8002000F0C5F8402000F0BE
:10424000C2F8A12000F0BFF8C82000F0BCF8DA20C6
:1042500000F0B9F8122000F0B6F8812000F0B3F8B1
:10426000CF2000F0B0F8D92000F0ADF8F12000F038
:10427000AAF8DB2000F0A7F8302000F0A4F8A42072
:1042800000F0A1F8A62000F09EF88D2000F09BF829
:10429000142000F098F8AF2000F095F8FFF732FFF7
:1042A00070BD0246012005E001F0010303B1504357
:1042B000524349080029F7D1704770B505460C46AE
:1042C00045F0B00000F07FF8102141EA141000F032
:1042D0007AF804F00F0000F076F870BD2DE9F04197
:1042E00005460E461746721ED206110E6A1E52066B
:1042F000100EFFF7E2FF002409E0A7F12001134AA6
:1043000002EB0111085D00F06EF8601CC4B2082CCD
:10431000F3DB721ED206110E6A1E012303EB42026A
:10432000D0B2FFF7CAFF00240BE0A7F12001074A33
:1043300002EB011204F10801505C00F054F8601C1B
:10434000C4B2082CF1DBBDE8F08100009A520008ED
:104350002DE9F04780460F4615461E460DB128460A
:1043600000E068420546002415E0301B411E0A208B
:10437000FFF797FFB5FBF0F00A21B0FBF1F201FB6C
:10438000120000F130093819C1B24A464046FFF721
:10439000A5FF601CC4B2B442E7DBBDE8F0872DE99D
:1043A000F04107460E461546002407E02A5D301905
:1043B000C1B23846FFF792FF601CC4B2285D0028E6
:1043C000F4D1BDE8F08110B50446FFF7E7FE782090
:1043D000FFF7BCFE0020FFF7B9FE2046FFF7B6FE50
:1043E000FFF7F4FE10BD10B50446FFF7D7FE7820A6
:1043F000FFF7ACFE4020FFF7A9FE2046FFF7A6FE20
:10440000FFF7E4FE10BD7047704710B5FDF7DAFC0A
:1044100010BD00B597B028210DA8FBF79CFF142113
:1044200008A8FBF798FF1C2101A8FBF794FF0120C7
:104430000D904FF4A0200E9000200F9001201190BD
:1044400002201490C10315914FF4E01116910DA8AC
:10445000FEF750F808B1FCF76AF90F200890022027
:10446000099000200A904FF480600B9000200C907F
:10447000022108A8FDF774FE08B1FCF758F9802066
:1044800001904000059001A8FDF764FD08B1FCF71C
:104490004EF917B000BD00000348006840F47000FA
:1044A000014908607047000088ED00E010B502483F
:1044B000FEF75DFE10BD0000AC01002010B50268E3
:1044C000224B984205D0B0F1804F02D0204B984249
:1044D00003D122F070024B681A431C4B98420ED055
:1044E000B0F1804F0BD01A4B984208D0194B98422C
:1044F00005D0194B984202D0184B984203D122F4B0
:104500004072CB681A4322F080034C6943EA0402EC
:1045100002608B68C3620B6883620C4B984208D0C0
:104520000C4B984205D00C4B984202D00B4B984252
:1045300001D10B69036301234361036903F00103A4
:104540001BB1036923F00103036110BD002C01407E
:104550000004004000400140004401400048014088
:1045600030B501F01F05012404FA05F3046A9C43E9
:104570000462046A01F01F0502FA05F52C43046287
:1045800030BD000030B5026A056A25F001050562FC
:10459000436884691C4D2C4024F003040D682C43AF
:1045A00022F002028D682A43184DA84200D10BE088
:1045B000174DA84200D107E0164DA84200D103E0F4
:1045C000154DA84206D100BF22F00802CD682A434B
:1045D00022F004020D4DA84208D00D4DA84205D08E
:1045E0000C4DA84202D00C4DA84207D123F4807391
:1045F00023F400734D692B438D692B434360846121
:104600004D684563026230BD8FFFFEFF002C014004
:1046100000400140004401400048014030B5026ABA
:10462000056A25F010050562436884691F4D2C401A
:1046300024F440740D6844EA052422F020028D68B9
:1046400042EA05121A4DA84200D10BE0194DA842CA
:1046500000D100BF184DA84200D100BF174DA8429D
:1046600007D106E022F08002CD6842EA051222F06E
:1046700040020F4DA84208D00E4DA84205D00E4D65
:10468000A84202D00D4DA84209D123F4806323F43F
:1046900000634D6943EA85038D6943EA85034360FE
:1046A00084614D688563026230BD0000FF8FFFFEAC
:1046B000002C0140004001400044014000480140FE
:1046C00030B5026A056A25F4807505624368C469DD
:1046D0001E4D2C4024F003040D682C4322F400727C
:1046E0008D6842EA05221A4DA84200D10BE0194D0F
:1046F000A84200D100BF184DA84200D100BF174DFD
:10470000A84207D106E022F40062CD6842EA052201
:1047100022F480620E4DA84208D00E4DA84205D06A
:104720000D4DA84202D00D4DA84209D123F480536B
:1047300023F400534D6943EA05138D6943EA0513D9
:104740004360C4614D68C563026230BD8FFFFEFFE8
:10475000002C01400040014000440140004801405D
:1047600030B5036A056A25F4805505624468C2695C
:10477000114D2A4022F440720D6842EA052223F4CA
:1047800000538D6843EA05330C4DA84208D00C4D08
:10479000A84205D00B4DA84202D00B4DA84204D12F
:1047A00024F480444D6944EA85144460C2614D6834
:1047B0000564036230BD0000FF8FFFFE002C014046
:1047C00000400140004401400048014030B5026A09
:1047D000056A25F4803505624368446D0F4D2C4011
:1047E0000D682C4322F400320D8942EA05420C4D3B
:1047F000A84208D00B4DA84205D00B4DA84202D0CC
:104800000A4DA84204D123F480334D6943EA0523BD
:10481000436044654D688565026230BD8FFFFEFFD1
:10482000002C01400040014000440140004801408C
:1048300030B5026A056A25F4801505624368446D47
:10484000104D2C400D6844EA052422F400120D8915
:1048500042EA05520C4DA84208D00C4DA84205D0A2
:104860000B4DA84202D00B4DA84204D123F4802363
:104870004D6943EA8523436044654D68C56502621E
:1048800030BD0000FF8FFFFE002C014000400140C2
:1048900000440140004801402DE9F04105460C4626
:1048A000204600F0A1F80646204600F097F807469B
:1048B00000F052F8902000F025F8022000F022F8D5
:1048C000304600F01FF8384600F01CF800F05EF8A3
:1048D000284600F089F80646284600F07FF807468B
:1048E00000F03AF8902000F00DF8032000F00AF8EC
:1048F000304600F007F8384600F004F800F046F8BB
:10490000BDE8F08170B50546002415E08020204107
:1049100000EA05024FF480410E48FDF747FA0122F4
:1049200051030C48FDF742FA00224FF400510948A8
:10493000FDF73CFA601CC4B2082CE7DB01225103EE
:104940000448FDF733FA00224FF400510148FDF707
:104950002DFA70BD0004004810B5012291030A48E9
:10496000FDF724FA012251030748FDF71FFA002240
:104970004FF480410448FDF719FA00224FF400512A
:104980000148FDF713FA10BD0004004810B50022DD
:104990004FF480410648FDF709FA0122510304480B
:1049A000FDF704FA012291030148FDF7FFF910BD5C
:1049B0000004004870B56024A025FFF7CDFF9020CB
:1049C000FFF7A0FF0120FFF79DFF2046FFF79AFFAA
:1049D0002846FFF797FFFFF7D9FF70BD01460F226A
:1049E00002EA01121001704701460A01C2F30710E2
:1049F000704790F8241001F00801082907D10168D8
:104A0000496821F40041426B11430268516090F8FB
:104A1000241001F0010139B10168496821F4003125
:104A2000826A11430268516090F8241001F002017B
:104A3000022907D10168496821F48031C26A114313
:104A40000268516090F8241001F00401042907D194
:104A50000168496821F48021026B114302685160AA
:104A600090F8241001F01001102907D1016889681D
:104A700021F48051826B11430268916090F82410F8
:104A800001F02001202907D10168896821F4005133
:104A9000C26B11430268916090F8241001F040014C
:104AA000402913D10168496821F48011026C114337
:104AB00002685160016CB1F5801F07D10168496837
:104AC00021F4C001426C11430268516090F8241037
:104AD00001F08001802907D10168496821F4002193
:104AE000826C114302685160704738B5044600205B
:104AF000C4F88400FDF760F905462068006800F0FE
:104B00000800082820D16FF07E402B4600224FF489
:104B100000110090204600F0E4F9A8B100BF00BFEA
:104B2000216851E8001F21F08000226842E800015E
:104B30000029F5D100BF2020E06700BF002084F8E5
:104B4000780000BF032038BD2068006800F0040032
:104B5000042830D16FF07E402B4600224FF48001B4
:104B60000090204600F0BDF928B300BF00BF2168C7
:104B700051E8001F21F49070226842E800010029EA
:104B8000F5D100BF00BF00BF2168083151E8001F08
:104B900021F001002168083141E80002002AF3D128
:104BA00000BF2020C4F8800000BF002084F87800F7
:104BB00000BF0320C7E72020E067C4F88000002082
:104BC0002066606600BF84F8780000BF00BFBAE7C7
:104BD00070B505466C6A0020A4F85A00A4F852008B
:104BE0002046FEF7D8FD70BD00BF00BF026852E846
:104BF000002F22F49071036843E80012002AF5D1D7
:104C000000BF00BF00BF0268083252E8002F22F048
:104C100001010268083242E80013002BF3D100BF03
:104C2000016E01290CD100BF00BF026852E8002FBD
:104C300022F01001036843E80012002AF5D100BFFA
:104C40002021C0F88010002101668166704710B5F0
:104C5000044600BF00BF216851E8001F21F040005A
:104C6000226842E800010029F5D100BF2020E0675A
:104C70000020E0662046FFF705F810BD2DE9F0475B
:104C800004464FF0000A2169A0680843616908439F
:104C9000E16940EA0108206800685D49084040EA8F
:104CA0000800216808602068406820F44050E168EE
:104CB000084321684860D4F81880206A40EA080850
:104CC0002068806820F4306040EA0800216888602D
:104CD00000BF50492068884216D14F48006B00F051
:104CE000030030B1012808D0022808D0032808D1D9
:104CF00001E0002607E0022605E0042603E008267E
:104D000001E0102600BF0CE044492068884201D130
:104D1000002606E042492068884201D1002600E0D2
:104D2000102600BFE069B0F5004F39D1092E17D227
:104D3000DFE806F005090D160F1616161300FDF72D
:104D40006BFB054610E0FDF77DFB05460CE0354D9D
:104D50000AE0FDF78DFB054606E04FF4004503E051
:104D600000254FF0010A00BF00BF85B368006168ED
:104D700000EB5100B0FBF1F7102F0ED3B7F5803FD9
:104D80000BD24FF6F07007EA0009C7F3420049EA78
:104D900000092068C0F80C9034E04FF0010A31E0BF
:104DA000092E18D2DFE806F005090D170F1717179F
:104DB0001400FDF731FB054611E0FDF743FB054606
:104DC0000DE0184D0BE0FDF753FB054607E019E039
:104DD0004FF4004503E000254FF0010A00BF00BF7B
:104DE00085B1606805EB50006168B0FBF1F7102FEA
:104DF00006D3B7F5803F03D2B8B22168C86001E09E
:104E00004FF0010A0020A066E0665046BDE8F0873A
:104E1000F369FFEF003801400010024000440040F9
:104E20000048004000127A0010B5C26F212A2AD132
:104E3000B0F85220CAB900BF00BF036853E8003F72
:104E400023F08002046844E80023002BF5D100BF62
:104E500000BF00BF036853E8003F43F0400204680E
:104E600044E80023002BF5D10DE0C16C0A88C2F3A1
:104E7000080203681A85C26C921CC264B0F8522002
:104E8000521EA0F8522010BDC16F212928D1B0F8C0
:104E90005210C9B900BF00BF026852E8002F22F0CB
:104EA0008001036843E80012002AF5D100BF00BF6B
:104EB00000BF026852E8002F42F04001036843E857
:104EC0000012002AF5D10BE0C16C09780268118547
:104ED000C16C491CC164B0F85210491EA0F85210B0
:104EE00070472DE9F04104460D4617469846069E48
:104EF00041E0701C00283ED0FCF75EFFA0EB0800EC
:104F0000B04200D816B90320BDE8F08120680068DF
:104F100000F0040070B3802D2DD0402D2BD02068E0
:104F2000C069C0F3C00078B108202168086220463B
:104F3000FFF75AFE0820C4F8840000BF002084F860
:104F4000780000BF0120DFE72068C069C0F3C020FF
:104F500080B14FF40060216808622046FFF744FEEC
:104F60002020C4F8840000BF002084F8780000BF2F
:104F70000320C9E7FFE72068C0692840A84201D1A3
:104F8000012000E00020B842B3D00020BCE70000C0
:104F900010B50248FEF700FC10BD000044020020DE
:104FA00000BFFEE702480068C0F30220704700001F
:104FB0000CED00E010B5002804DB0A07130E054ACB
:104FC000135406E00A07140E034A00F00F031B1FD8
:104FD000D45410BD00E400E018ED00E0FCF7FEFE44
:104FE000FFF717FAFEF772FFFEF74EFFFEF7A2FE7D
:104FF000FEF7E8FEFFF73CF8FEF720FFFEF7E4FFC0
:10500000FFF75CF8012240214FF09040FCF7CEFE04
:10501000012280214FF09040FCF7C8FE012211468A
:105020008048FCF7C3FEFFF7E5F87FA202210120CC
:10503000FFF7B5F9FFF7BEFC4B215020FFF72CFC22
:10504000FEF750FEFEF730FEFBF7ECFA4FF4FA7075
:10505000FCF75CFDFFF756F8002240214FF090402E
:10506000FCF7A4FE002201216E48FCF79FFED7E06A
:10507000704890ED030A704880ED000A6F4890ED8B
:10508000030A6F4880ED000A6EA201210220FFF79B
:1050900086F9694890ED000AB5EEC00AF1EE10FA03
:1050A00001DB202000E02D20024605210220FFF731
:1050B00015F9614890ED000AB5EEC00AF1EE10FA5C
:1050C00002DD90ED000A04E05B4890ED000AB1EECD
:1050D000400ABDEEC00A10EE102A0123062102206C
:1050E000FFF736F92E2207210220FFF7F7F8524882
:1050F00090ED000AB5EEC00AF1EE10FA02DDD0ED37
:10510000000A04E04C4890ED000AF1EE400A4A48DB
:1051100090ED000AB5EEC00AF1EE10FA02DD90ED56
:10512000000A04E0444890ED000AB1EE400ABDEEEA
:10513000C00AB8EEC00A30EEC00ADFED440A20EE25
:10514000200ABDEEC00A10EE102A022308211846DC
:10515000FFF7FEF83EA201210320FFF720F93848AF
:1051600090ED000AB5EEC00AF1EE10FA01DB202046
:1051700000E02D20024605210320FFF7AFF830485C
:1051800090ED000AB5EEC00AF1EE10FA02DD90EDE6
:10519000000A04E02A4890ED000AB1EE400ABDEE94
:1051A000C00A10EE102A012306210320FFF7D0F8D1
:1051B0002E2207210320FFF791F8214890ED000AE5
:1051C000B5EEC00AF1EE10FA02DDD0ED000A04E0FF
:1051D0001B4890ED000AF1EE400A194890ED000AD4
:1051E000B5EEC00AF1EE10FA02DD90ED000A04E01F
:1051F000134890ED000AB1EE400ABDEEC00AB8EEC9
:10520000C00A30EEC00ADFED110A20EE200ABDEE22
:10521000C00A10EE102A022308210320FFF798F895
:1052200026E70000000400484C6F6164696E672E39
:105230002E2E00002400002000000020400000204E
:10524000040000205664633A000000000000C842D9
:105250004964633A000000004FF04070E1EE100A2C
:10526000704702030405060708090A0B0C0D0E0F10
:1052700010100102030405060708090A0B0C0D0EA5
:105280000F100000000000000000010203040607E8
:1052900008090000000001020304000000000000F3
:1052A00000000000000000000000000000F8000006
:1052B0000000000000333000000000100C06100C4D
:1052C0000600000000000000000040C07840C078E8
:1052D0004000043F04043F040400007088FC0830D0
:1052E0000000001820FF211E0000F008F000E01868
:1052F000000000211C031E211E0000F00888700021
:1053000000001E2123241927211010160E00000072
:1053100000000000000000000000000000E0180491
:105320000200000000071820400000020418E000FE
:1053300000000040201807000000404080F080403E
:1053400040000202010F01020200000000F0000014
:1053500000000101011F0101010000000000000028
:10536000000080B07000000000000000000000009D
:105370000000000101010101010100000000000026
:1053800000000030300000000000000000008060DD
:105390001804006018060100000000E01008081062
:1053A000E000000F102020100F00001010F8000087
:1053B00000000020203F202000000070080808881E
:1053C00070000030282422213000003008888848EE
:1053D00030000018202020110E000000C02010F81E
:1053E000000000070424243F240000F808888808EF
:1053F00008000019212020110E0000E010888818F4
:105400000000000F112020110E0000380808C838D5
:1054100008000000003F00000000007088080888B5
:105420007000001C222121221C0000E0100808103E
:10543000E0000000312222110F00000000C0C00077
:10544000000000000030300000000000008000007C
:10545000000000008060000000000000804020107C
:105460000800000102040810200040404040404075
:1054700040000404040404040400000810204080D8
:10548000000000201008040201000070480808080D
:10549000F0000000003036010000C030C828E810DD
:1054A000E0000718272423140B000000C038E00098
:1054B0000000203C23020227382008F888888870E2
:1054C0000000203F202020110E00C03008080808EE
:1054D0003800071820202010080008F808080810D5
:1054E000E000203F202020100F0008F88888E808FE
:1054F0001000203F20202320180008F88888E808A2
:105500001000203F200003000000C03008080838C9
:10551000000007182020221E020008F808000008DA
:10552000F808203F210101213F20000808F8080861
:1055300000000020203F2020000000000808F8089C
:105540000800C08080807F00000008F888C028180C
:105550000800203F20012638200008F8080000003D
:105560000000203F20202020300008F8F800F8F844
:105570000800203F003F003F200008F830C000082E
:10558000F808203F200007183F00E0100808081026
:10559000E0000F10202020100F0008F8080808086D
:1055A000F000203F210101010000E0100808081070
:1055B000E0000F18242438504F0008F888888888A5
:1055C0007000203F2000030C30200070880808087D
:1055D00038000038202121221C00180808F808088B
:1055E00018000000203F2000000008F80800000814
:1055F000F808001F202020201F000878880000C81D
:105600003808000007380E010000F80800F800080C
:10561000F800033C0700073C030008186880806816
:10562000180820302C03032C30200838C800C83854
:1056300008000000203F2000000010080808C838BB
:1056400008002038262120201800000000FE020259
:1056500002000000007F40404000000C30C000000D
:105660000000000000010638C00000020202FE0037
:105670000000004040407F000000000004020202E1
:105680000400000000000000000000000000000016
:105690000000808080808080808000020204000002
:1056A00000000000000000000000000080808080FA
:1056B00000000019242222223F2008F800808000E8
:1056C0000000003F112020110E00000000808080AB
:1056D0000000000E112020201100000000808088B2
:1056E000F800000E112020103F20000080808080F4
:1056F0000000001F222222221300008080F08888F0
:1057000088180020203F202000000000808080803A
:105710008000006B94949493600008F8008080806F
:105720000000203F210000203F20008098980000CA
:1057300000000020203F20200000000000809898FA
:10574000000000C08080807F000008F8000080809A
:105750008000203F24022D302000000808F80000BF
:1057600000000020203F202000008080808080807A
:105770008000203F20003F20003F8080008080800C
:105780000000203F210000203F200000808080801A
:105790000000001F202020201F008080008080004B
:1057A000000080FFA12020110E00000000808080FA
:1057B0008000000E112020A0FF808080800080806B
:1057C000800020203F212000010000008080808098
:1057D00080000033242424241900008080E080808D
:1057E00000000000001F20200000808000000080DA
:1057F0008000001F202020103F208080800000803B
:10580000808000010E30080601008080008000804A
:1058100080800F300C030C300F00008080008080EF
:1058200080000020312E0E3120008080800000801A
:10583000808080818E7018060100008080808080CA
:1058400080000021302C2221300000000000807CEC
:10585000020200000000003F404000000000FF0086
:10586000000000000000FF0000000002027C800039
:1058700000000040403F000000000006010102025D
:10588000040400000000000000000000AC58000804
:10589000000000205C000000C40100080859000856
:1058A0005C000020D4080000E001000800000000B7
:1058B00000000000000000000000000010000000D8
:1058C0000100000000127A0000000000000000004B
:1058D00000000000000000000000000000000000C8
:1058E00000000000000000000000000000000000B8
:1058F00000000000000000000000000000000000A8
:0859000000000000000000009F
:040000050800018965
:00000001FF
